:100000000C9461020C949C050C9475050C94890267
:100010000C9489020C9489020C9489020C94890234
:100020000C9489020C9489020C9489020C94890224
:100030000C9489020C9489020C9489020C94890214
:100040000C942B050C9489020C94D1030C94AB03F3
:100050000C9489020C9489020C9489020C948902F4
:100060000C9489020C9489028C07C208C208E0072C
:1000700013082D08C2082808C2087D08C2084608CF
:10008000830800000000250028002B00000000006D
:1000900023002600290000000008000201000003E0
:1000A0000407000000000000000000000000240021
:1000B00027002A00010204081020408001020408E1
:1000C00010200102040810200404040404040404A1
:1000D00002020202020203030303030300070600F5
:1000E00000030241D70000000000000000000000F3
:1000F00000000000000000000000000000001F06DB
:1001000010000000000000000400040101000006CF
:100110000000900000000000000000000000001F30
:1001200006101C010200000000000000000000009A
:10013000000000000000140000001403900164009F
:100140001F06103802FF02580005000000000000E2
:10015000000000000010000000000000000000008F
:100160000005061054000000000000000000000020
:10017000000000000000000000000000000000007F
:1001800000001F06200004040202000128000100F4
:10019000180404050500022803010E0300002A04C8
:1001A0001407001F06201C0400032A0001554152B9
:1001B0005469637304040505000428030102050063
:1001C000012A06001F06203804030200052A010147
:1001D0000000040405050006280301020700042AA4
:1001E00006040908001F06205400072A040106001F
:1001F000120000000A0004040202000828000101A5
:100200001804041010001F06207000092800019E29
:10021000CADC240EE5A9E093F3A3B50100406E0407
:10022000041313000A28001F06208C0301040B008E
:100230009ECADC240EE5A9E093F3A3B50200406E4C
:1002400044101400000B00001F0620A8020200004A
:10025000000000000000000000000000000000009E
:10026000000004041313000C001F0620C42803011F
:10027000100D009ECADC240EE5A9E093F3A3B5039C
:1002800000406E14001400000D001F0620E0000363
:10029000020000000000000000000000000000005C
:1002A00000000000004614030200001F0620FC0EA0
:1002B000290201000004040202000F2800010A18AC
:1002C0000404050500102803010211001906211875
:1002D00000272A0404090100112A27010A0000004E
:1002E000000000000000000000000000001F0640A9
:1002F000002A000100800400030000000202000840
:1003000004000B0000000302000204000D000F06B1
:10031000401C000E2A27010080040011000000008C
:1003200000000000000000000000000000000013BA
:100330000650009ECADC240EE5A9E093F3A3B500A5
:1003400000406E00000000000000000000000000FF
:100350000F06600000000000000000000000000028
:10036000000000000000000000000000000000008D
:10037000000606F00003D388000000000000000023
:10038000000000000000000000000000000000006D
:1003900000416461667275697420426C75656672AD
:1003A000756974204C6F7720456E65726779206E91
:1003B000524638303031205072696E74206563685F
:1003C0006F2064656D6F000A2A2053656E64696E44
:1003D00067202D3E2022002A20446973636F6E6ED1
:1003E0006563746564206F722061647665727469F8
:1003F00073696E672074696D6564206F7574002A77
:1004000020436F6E6E656374656421002A20416429
:10041000766572746973696E67207374617274654E
:100420006400202050697065204572726F7220430D
:100430006F64653A20307800414349204576742046
:1004400050697065204572726F723A20506970650C
:1004500020233A0045767420436D642072657370E2
:100460006F6E653A204572726F722E20417264750C
:10047000696E6F20697320696E20616E20776869EC
:100480006C652831293B206C6F6F70004143492017
:10049000436F6D6D616E6420004572726F722069EA
:1004A0006E2041434920536574757000002C200074
:1004B000436D642051756575652046756C6C000050
:1004C0001A0F11241FBECFEFD8E0DEBFCDBF11E061
:1004D000A0E0B1E0E2EBF4E202C005900D92A0369C
:1004E000B107D9F725E0A0E6B1E001C01D92AF3C0D
:1004F000B207E1F712E0C1E6D2E004C02197FE01A5
:100500000E94E30FC036D107C9F70E94E80B0C9494
:1005100057120C940000FC01918D828D981761F0A8
:10052000828DDF01A80FB11D5D968C91928D9F5F2A
:100530009F73928F90E008958FEF9FEF0895FC01D5
:10054000918D828D981731F0828DE80FF11D858D88
:1005500090E008958FEF9FEF0895FC01918D228D1B
:10056000892F90E0805C9F4F821B91098F739927A0
:10057000089584E794E00E94AD0221E0892B09F4FC
:1005800020E0822F0895FC01848DDF01A80FB11DAA
:10059000A35ABF4F2C91848D90E001968F739927B9
:1005A000848FA689B7892C93A089B1898C918064A6
:1005B0008C93938D848D981306C00288F389E02D67
:1005C00080818F7D80830895EF92FF920F931F9318
:1005D000CF93DF93EC0181E0888F9B8D8C8D9813F6
:1005E00005C0E889F989808185FD24C0F62E0B8D30
:1005F00010E00F5F1F4F0F731127E02E8C8DE81254
:100600000CC00FB607FCFACFE889F989808185FF15
:10061000F5CFCE010E94C302F1CF8B8DFE01E80F12
:10062000F11DE35AFF4FF0820B8FEA89FB8980812D
:10063000806207C0EE89FF896083E889F98980813B
:100640008064808381E090E0DF91CF911F910F91D2
:10065000FF90EF900895CF93DF93EC01888D88236E
:10066000C9F0EA89FB89808185FD05C0A889B9891F
:100670008C9186FD0FC00FB607FCF5CF808185FFFA
:10068000F2CFA889B9898C9185FFEDCFCE010E9468
:10069000C302E7CFDF91CF91089580E090E0892BEE
:1006A00029F00E94B90281110C9400000895833052
:1006B00081F028F4813099F08230A1F008958730DC
:1006C000A9F08830B9F08430D1F4809180008F7D1A
:1006D00003C0809180008F7780938000089584B557
:1006E0008F7702C084B58F7D84BD08958091B0005E
:1006F0008F7703C08091B0008F7D8093B000089504
:10070000CF93DF93282F30E0F901EA56FF4F849111
:10071000F901EC54FF4FD491F901E853FF4FC49114
:10072000CC2391F081110E945703EC2FF0E0EE0FE3
:10073000FF1FE457FF4FA591B491EC91ED2381E0A9
:1007400090E021F480E002C080E090E0DF91CF9162
:1007500008950E94E0111F920F920FB60F9211247C
:100760002F933F934F935F936F937F938F939F93B9
:10077000AF93BF93EF93FF9384E794E00E94C3028B
:10078000FF91EF91BF91AF919F918F917F916F9169
:100790005F914F913F912F910F900FBE0F901F903F
:1007A00018951F920F920FB60F9211242F938F93CB
:1007B0009F93EF93FF93E0918404F09185048081EF
:1007C000E0918A04F0918B0482FD12C090818091A7
:1007D0008D048F5F8F7320918E04821751F0E0910A
:1007E0008D04F0E0EC58FB4F958F80938D0401C091
:1007F0008081FF91EF919F918F912F910F900FBE6C
:100800000F901F9018951F93CF93DF93282F30E000
:10081000F901EA56FF4F8491F901EC54FF4FD4914E
:10082000F901E853FF4FC491CC23C9F0162F811171
:100830000E945703EC2FF0E0EE0FFF1FEE57FF4F23
:10084000A591B4918FB7F894111105C09C91ED2F2B
:10085000E095E92302C0EC91ED2BEC938FBFDF9183
:10086000CF911F9108953FB7F89480912003909104
:100870002103A0912203B091230326B5A89B05C0B4
:100880002F3F19F00196A11DB11D3FBFBA2FA92F0F
:10089000982F8827820F911DA11DB11DBC01CD018C
:1008A00043E0660F771F881F991F4A95D1F7089577
:1008B000089508952091590530915A0580915B055E
:1008C00090915C052817390749F0E0915B05F0919C
:1008D0005C05E954FD4F808190E008958FEF9FEF14
:1008E00008952091590530915A0580915B059091AA
:1008F0005C0528173907E9F0E0915B05F0915C058C
:10090000E954FD4F808120915B0530915C052F5F9C
:100910003F4F30935C0520935B0520915B05309140
:100920005C052F73332730935C0520935B0590E0C3
:1009300008958FEF9FEF08958091590590915A0582
:1009400020915B0530915C05821B930B8F73992777
:100950000895CF93DF9390E0FC01EC54FF4F249176
:10096000FC01E853FF4F8491882361F190E0880FE8
:10097000991FFC01E655FF4FC591D491FC01EE573C
:10098000FF4FA591B491611109C09FB7F894888178
:10099000209582238883EC912E230BC0623061F472
:1009A0009FB7F8943881822F809583238883EC91B8
:1009B0002E2B2C939FBF06C08FB7F894E8812E2B67
:1009C00028838FBFDF91CF9108958F929F92AF922E
:1009D000BF92CF92DF92EF92FF926B017C010E9457
:1009E00033044B015C01C114D104E104F104F1F0C2
:1009F0000E943304DC01CB0188199909AA09BB09BB
:100A0000883E9340A105B10570F321E0C21AD108D8
:100A1000E108F10888EE880E83E0981EA11CB11C45
:100A2000C114D104E104F10419F7DDCFFF90EF9078
:100A3000DF90CF90BF90AF909F908F9008952FB789
:100A4000F89460911C0370911D0380911E03909196
:100A50001F032FBF08951F920F920FB60F921124FC
:100A60002F933F938F939F93AF93BF9380911C03DA
:100A700090911D03A0911E03B0911F0330911B03A1
:100A800026E0230F2D3720F40296A11DB11D05C0CD
:100A900029E8230F0396A11DB11D20931B0380930A
:100AA0001C0390931D03A0931E03B0931F0380911A
:100AB000200390912103A0912203B091230301967A
:100AC000A11DB11D8093200390932103A0932203C5
:100AD000B0932303BF91AF919F918F913F912F913D
:100AE0000F900FBE0F901F9018951F920F920FB688
:100AF0000F9211242F933F934F935F936F937F93A4
:100B00008F939F93AF93BF93EF93FF93E0910F0168
:100B1000F09110010995FF91EF91BF91AF919F91D5
:100B20008F917F916F915F914F913F912F910F9096
:100B30000FBE0F901F9018951F920F920FB60F9235
:100B400011242F933F934F935F936F937F938F93D2
:100B50009F93AF93BF93EF93FF93E0910D01F091BB
:100B60000E010995FF91EF91BF91AF919F918F91E8
:100B70007F916F915F914F913F912F910F900FBE99
:100B80000F901F90189520915E05022E000C330BDC
:100B90002330310529F022303105C1F430E001C0A5
:100BA00031E02DB3882341F081E090E001C0880F4F
:100BB0003A95EAF7822B08C081E090E001C0880FE7
:100BC0003A95EAF7809582238DBB0895FFCF0F9366
:100BD0001F93CF93DF93CDB7DEB7A1970FB6F894ED
:100BE000DEBF0FBECDBF83B78E7F83BFE0916201B2
:100BF000E23070F4E13011F0E89801C0E998F0E0DB
:100C0000EE0FFF1FE35FFE4F88E594E09183808342
:100C100080916101882399F02FB7F8948091610148
:100C2000813059F48DB380931A039DB38091600194
:100C3000809589238DBB2FBF02C020931A0380E7C4
:100C40008CBD1DBC60E080915F050E940304809113
:100C50006B0290916C02891709F4ACC090E021E21C
:100C6000289FF001299FF00D1124ED59FE4FDE0160
:100C7000119601900D922A95E1F7019687709927B8
:100C800080936B028A818EBD00000DB407FEFDCFFC
:100C90008EB580936D028B818EBD00000DB407FE72
:100CA000FDCF8EB580936E029A81992349F0292F4A
:100CB00030E0482F50E04217530714F48FEF890FAC
:100CC000803208F08FE1AFE6B2E09E012C5F3F4F2B
:100CD000F9019E2F921B981748F491919EBD000038
:100CE0000DB407FEFDCF9EB59D93F3CF61E08091DB
:100CF0005F050E94030480916101882361F09FB722
:100D0000F8942091610180911A03213019F48DBB70
:100D10009FBF01C08FBF83B7816083BF8091620195
:100D20000E94930990916B0280916C02981729F0B0
:100D300060E080915F050E94030440916E024423AD
:100D4000D9F120912E0430E089010F5F1F4F077009
:100D5000112780912D04801761F151E2529FC0014B
:100D6000539F900D1124FC01EB5DFC4F108250E06D
:100D70004F5F5F4F6EE672E08A5D9C4F0E94E51107
:100D800000932E04F89480912E048F5F87709091C9
:100D90002D047894891310C080E0A1960FB6F894C2
:100DA000DEBF0FBECDBFDF91CF911F910F910C948D
:100DB000C305FFCF1A8266CFA1960FB6F894DEBFA7
:100DC0000FBECDBFDF91CF911F910F9108950F936B
:100DD0001F93CF93DF938C01FC01D1814D2F50E005
:100DE00060E070E02AE084E794E00E94370B67E55A
:100DF00071E084E794E00E949D0AC0E0F801EC0FE6
:100E0000F11D418150E060E070E020E184E794E072
:100E10000E94370B6DEA74E084E794E00E94790A3F
:100E2000CF5FDC1758F76CEA74E084E794E0DF9159
:100E3000CF911F910F910C94800B0F931F93CF9321
:100E4000DF93FC0141814032C8F58C0120916C0296
:100E500030E0E9012196C770DD2780916B028C1785
:100E6000C1F051E2529FC001539F900D1124FC012B
:100E7000ED59FE4F108250E04F5F5F4FB8016F5F3A
:100E80007F4F8C599E4F0E94E511C0936C02C1E0C8
:100E900001C0C0E080912403882349F06AE571E035
:100EA00084E794E00E949D0AC8010E94E70660E082
:100EB00080915F050E9403048C2F01C080E0DF91C8
:100EC000CF911F910F910895E1E5F4E025E0218392
:100ED0002FE022839483838376836583CF010C94F0
:100EE0001D070F931F93CF93DF93EC0188EF92E0E0
:100EF0000E94B20A882309F445C1E091FA028E2FBC
:100F000090E0FC01E158F109ED30F10508F03AC13B
:100F1000EC5CFF4F0C94E30F8091FD02809336044C
:100F20008091FB02823019F08330B9F12BC180919E
:100F30003404893010F460E01BC000E010E028E8C1
:100F400030E090913404892F869586958695181700
:100F500040F4602F88E00E94940B9C011F5F085FA3
:100F6000F0CF892F877039F0612F660F660F660FFB
:100F70000E94940B9C012230310509F403C1888939
:100F8000882309F4FFC069E974E084E794E0DF9105
:100F9000CF911F910F910C94800B8D89882309F4B8
:100FA00063C0BE016B5E7F4FFB0101900020E9F73B
:100FB0003197AF01461B570B81E00E948F0F54C041
:100FC0008091FC02882301F188898823E1F06CE894
:100FD00074E084E794E00E94790A4091FB0250E0BB
:100FE00060E070E020E184E794E00E94370B66E463
:100FF00071E084E794E00E949D0A64E574E084E770
:1010000094E00E94800BFFCF8091FB02893009F0B1
:10101000B9C049E06DEF72E084E0DF91CF911F919C
:101020000F910C948F0F809136048093390481E0E6
:101030008093520489E08093530481E594E00E94F8
:101040001D0785E88D8FEC85FD85309709F00995A2
:101050008091400483FF96C085C086E88D8FEC8523
:10106000FD85309709F009956B897C8989899A8972
:101070000E94640781E88D8FEC85FD85309709F427
:1010800081C0DF91CF911F910F9109946091F90276
:10109000625020E030E0462F50E0241735070CF571
:1010A0008091590590915A0501968F739927E09187
:1010B0005B05F0915C058E179F0781F0E091590563
:1010C000F0915A05E954FD4FD901A850BD4F14962F
:1010D0007C91708390935A05809359052F5F3F4F01
:1010E000DCCFEE85FF85309709F44CC08CEF92E0A1
:1010F000DF91CF911F910F9109949091FB02809104
:101100003904890F2CC08889882331F168E374E0A1
:1011100084E794E00E94790A4091FB0250E060E08D
:1011200070E02AE084E794E00E94370B62E274E00A
:1011300084E794E00E94790A4091FC0250E060E06C
:1011400070E020E184E794E00E94370B66E471E0F0
:1011500084E794E00E949D0A809139048F5F809318
:10116000390410C08091F70281110CC0C1E0C09316
:10117000520483E18093530481E594E00E941D07AB
:10118000C093F702DF91CF911F910F9108950F93B4
:101190001F93CF93DF931F92CDB7DEB78C01698386
:1011A0008091390481110AC0C8010E9471076AE068
:1011B00070E080E090E00E94E504F2CF809140046E
:1011C00083FF13C061E0CE0101960E94AF098091B8
:1011D000390481508093390463E270E080E090E04C
:1011E0000E94E50481E090E005C0C8010E947107FB
:1011F00080E090E00F90DF91CF911F910F910895C3
:10120000CF92DF92EF92FF920F931F93CF93DF93D2
:101210006C017A018B01C0E0D0E0CE15DF0589F0CA
:10122000D8016D918D01D601ED91FC910190F08175
:10123000E02DC6010995892B11F47E0102C021968B
:10124000ECCFC701DF91CF911F910F91FF90EF90ED
:10125000DF90CF900895EF92FF920F931F93CF935B
:10126000DF93EC017B018A0188819981009729F045
:101270002A813B8124173507F8F4B8016F5F7F4F4F
:101280000E941611009759F0998388831B830A8363
:101290002C813D81232B81F4FC0110820DC08881BB
:1012A0009981009711F00E947E10198218821D8288
:1012B0001C821B821A8207C01D830C83B7018881A0
:1012C00099810E94EE11CE01DF91CF911F910F9174
:1012D000FF90EF900895E4E7F4E0A089B18982E0FF
:1012E0008C93A485B5851C92A685B78587E68C93DB
:1012F000108EA489B58986E08C93A289B3898C91DC
:1013000080618C93A289B3898C9188608C93A28927
:10131000B3898C9180688C930288F389E02D808159
:101320008F7D808308958230C8F4E82FF0E0EE0FBF
:10133000FF1FE35FFE4F27EE35E0318320838130CE
:1013400039F0809169008C7F80936900E89A089554
:1013500080916900837F80936900E99A0895EF92F4
:10136000FF921F93CF93DF93CDB7DEB765970FB68C
:10137000F894DEBF0FBECDBFE0917204F09173040C
:10138000278130852230310519F02430310569F587
:10139000653158F5162FBC01E12EF12CA701CE01C5
:1013A00002960E94E5111E5F1093520485E180931E
:1013B000530483E080935404A701BE016E5F7F4F06
:1013C00085E594E00E94E5111092CA0581E594E05C
:1013D00065960FB6F894DEBF0FBECDBFDF91CF91FB
:1013E0001F91FF90EF900C941D0780E065960FB65B
:1013F000F894DEBF0FBECDBFDF91CF911F91FF905C
:10140000EF900895CF93DF93CDB7DEB764970FB613
:10141000F894DEBF0FBECDBFCE01019664960FB625
:10142000F894DEBF0FBECDBFDF91CF910895CF936B
:10143000DF93EC01FB0186179707B1F060817181A2
:101440006115710529F0448155810E942B090CC05A
:1014500088819981009711F00E947E10198218826C
:101460001D821C821B821A82CE01DF91CF910895CA
:10147000FC0111821082138212821582148261157E
:10148000710551F0FB0101900020E9F73197AF01A0
:10149000461B570B0C942B0908950F931F93CF9362
:1014A000DF938C018AE090E00E94E90FEC0168E490
:1014B00071E00E94380AB801CE010E94170AE0913B
:1014C0006005F0916105FF83EE83198618863097D9
:1014D00019F0D187C08704C0D0936305C09362051B
:1014E000D0936105C0936005DF91CF911F910F915B
:1014F0000895EF92FF920F931F93CF93DF938C0188
:101500007B01C0E0D0E0F701EC0FFD1F6491662382
:1015100061F0D801ED91FC910190F081E02DC801BE
:101520000995892B11F02196EECFCE01DF91CF9155
:101530001F910F91FF90EF9008956115710579F05B
:10154000FB0101900020E9F73197AF01461B570BD3
:10155000DC01ED91FC910280F381E02D099480E0A3
:1015600090E008950F931F93CF93DF93EC01F894CD
:1015700010912E0400912D047894E0912D04809117
:101580002E04E81759F181E28E9FF0011124EB5DE2
:10159000FC4FDE0101900D928A95E1F780912D04B8
:1015A00090E001968770992780932D048091240301
:1015B000882349F06CE571E084E794E00E949D0A7D
:1015C000CE010E94E706812F90E00196877099274F
:1015D000081306C081E00E94C30502C080E001C07C
:1015E00081E09A819838A9F0993851F19638D1F56F
:1015F000E8E4F4E098E09E0FDF0118971C92119246
:101600009E13FACF109250049091360490933904AF
:1016100029C0FE013B96A8E4B4E0AE014D5E5F4FE9
:101620009F0128503109E90198819D012850310915
:10163000E901988391919D93E417F50789F712C00A
:101640002B813C8130933B0420933A042D813E81D1
:1016500030933D0420933C042F81388530933F0420
:1016600020933E04DF91CF911F910F9108954F92E7
:101670005F926F927F92EF92FF920F931F93CF939F
:10168000DF93CDB7DEB7A1970FB6F894DEBF0FBEDC
:10169000CDBF7C01FA01CB0119A2223008F42AE067
:1016A0008E010F5D1F4F422E512C612C712CBF01FA
:1016B000A30192010E94FE11F901CA010150110912
:1016C0006A3014F4605D01C0695CD8016C93232B0F
:1016D000242B252B61F7B801C7010E949D0AA19612
:1016E0000FB6F894DEBF0FBECDBFDF91CF911F9133
:1016F0000F91FF90EF907F906F905F904F900895C3
:101700000F931F93CF93DF93EC010E94790A8C0112
:1017100066E471E0CE010E949D0A800F911FDF9167
:10172000CF911F910F910895EF92FF920F931F9306
:10173000CF93DF93F82E81E2689FE001112400E04F
:1017400010E0E12CEF1421F198012C0F3D1F609166
:10175000320470913304620F731FFB013196449180
:1017600050E04E5F5F4F89EA95E00E94F51189EAEB
:1017700095E00E941D070F5D1F4F811107C060EBB0
:1017800074E084E794E00E94800B19C0E394DACF00
:10179000C0E087E895E00E94B20A8823D1F3CF5FCA
:1017A00080918905843859F490918B058FEF890FCA
:1017B000823010F4FC12EDCF892F90E002C081E856
:1017C00090E0DF91CF911F910F91FF90EF900895DE
:1017D000CF93DF93CDB7DEB72C970FB6F894DEBF6B
:1017E0000FBECDBF789484B5826084BD84B581601E
:1017F00084BD85B5826085BD85B5816085BD8091DC
:101800006E00816080936E00109281008091810053
:10181000826080938100809181008160809381004B
:10182000809180008160809380008091B10084600D
:101830008093B1008091B00081608093B00080916E
:101840007A00846080937A0080917A00826080932D
:101850007A0080917A008E7F80937A0080917A005E
:10186000806880937A001092C10010925505109202
:1018700056051092570510925805109213051092B4
:101880001405109215051092160560ED77E080E0C2
:1018900090E00E94E50484E794E0909354058093DF
:1018A00053050E946B090E941F05609313057093F6
:1018B0001405809315059093160567E371E08091F8
:1018C0005305909154050E949D0A6AE070E080E003
:1018D00090E00E94E50481E0809327050E946B0957
:1018E00061E973E084E794E00E94800B60E083E0AC
:1018F0000E94A90460E084E00E94A90488E0EFE46B
:10190000F1E0ABE7B5E001900D928A95E1F7109216
:1019100078051092770580E590E090937A058093A2
:10192000790580E091E09093300480932F0484E067
:10193000809331048CED90E09093330480933204D3
:1019400085E180933404A8E4B4E043EA52E088E0FF
:10195000840F9D0128503109F90110821D92FA016E
:101960001192AF018E13F5CF1092A2021092A10234
:101970001092A00210929F028FEF80939E0280939C
:101980009D0280939C0210929B0210929A021092E8
:101990009902109298021092970210929602109259
:1019A0009502109294021092930280912F049091CC
:1019B0003004909373048093720484E080939202C5
:1019C0008CED90E0909391028093900285E180935A
:1019D0008F0210926E021FB7F89480918E028111CF
:1019E00027C0E2EDF0E08491EEEBF0E09491E82F77
:1019F000F0E0EE0FFF1FE655FF4FA591B491EC917B
:101A0000E92321F461E08AE00E94030461E08AE0B6
:101A10000E94A9048CB580618CBD8CB580648CBD9E
:101A200061E08DE00E94A90461E08BE00E94A904BE
:101A300080918E028F5F80938E021FBF10922403CD
:101A400010926B0210926C0280E090E0FC01ED5964
:101A5000FE4F1182128281968830F1E09F07B1F724
:101A600010922D0410922E0480E090E0FC01ED59BC
:101A7000FE4F118212828196883021E09207B1F7E1
:101A800061E080915D050E94A90462E080915E059D
:101A90000E94A90461E080915F050E94A90461E0B1
:101AA00080915D050E94030464E670E080E090E0B0
:101AB0000E94E50460E080915D050E94030461E0FE
:101AC00080915D050E94030460E08DE00E940304A4
:101AD00060E08BE00E94030461E080915F050E945A
:101AE000030460E08DE00E9403048FEF80936201A5
:101AF00080915E05082E000C990B8230910519F437
:101B00001092620105C0039719F481E0809362018D
:101B10006EE170E080E090E00E94E5048091620157
:101B20009FB7F894882349F0813011F482E006C011
:101B300082E08093610180E001C081E0209160013A
:101B4000822B8093600180916101811103C081E04B
:101B5000809361019FBF809162010E94930986E694
:101B600095E00E9471071091830580910C01181770
:101B7000A1F0113819F46CE074E009C0153819F4BB
:101B80006FEF73E004C0163831F467ED73E084E75B
:101B900094E00E94800B10930C01153809F0A4C04A
:101BA00000916205109163050115110539F468E48F
:101BB00071E0CE0107960E94380A31C0D80118960C
:101BC000ED91FC911997F0936305E09362053097CE
:101BD00029F4109261051092600502C017821682E6
:101BE0001A8219821C821B821E821D82B801CE01BC
:101BF00001960E94170AF801808191810E947E104F
:101C0000C8010E947E1089819A8198878F838B8179
:101C10009C819A8789878D819E819C878B878B8504
:101C20009C85892B29F48F8198850E947E105CC049
:101C3000EF81F88580818823B1F31A8219821C8292
:101C40001B821E821D82BE01695F7F4FCE010196FD
:101C50000E94170ACE0101960E94020A7C01898126
:101C60009A810E947E1000E010E0F701E00FF11F62
:101C70000F5F1F4F81918A3009F4C1C006311105F1
:101C8000BCF367EC73E084E794E00E94790AB70143
:101C900084E794E00E949D0A69E471E084E794E09F
:101CA0000E949D0A66E471E084E794E00E949D0A28
:101CB0008091390481110BC086E695E00E9471077E
:101CC0006AE070E080E090E00E94E504F1CF10E06F
:101CD000002309F4A8CF8091400483FD95C086E6D7
:101CE00095E00E947107F4CF83E00E94800311E029
:101CF000892B09F410E08091B602181751F00E9468
:101D00001F056093B2027093B3028093B402909364
:101D1000B5020E941F058090B2029090B302A0907D
:101D2000B402B090B502DC01CB0188199909AA0967
:101D3000BB09C397A105B105B0F08091B102181796
:101D400091F01093B102112371F06BE471E0CE01B8
:101D500001960E94380ACE0101960E944D0A89819F
:101D60009A810E947E101093B60283E00E94800345
:101D700011E0892B09F410E0E12EF12C8091B002E2
:101D800090E0E816F90651F00E941F056093AC023E
:101D90007093AD028093AE029093AF020E941F0534
:101DA0008090AC029090AD02A090AE02B090AF02D5
:101DB000DC01CB0188199909AA09BB09C397A105C0
:101DC000B105C0F08091AB0290E0E816F90691F001
:101DD0001093AB02112371F06DE471E0CE01019616
:101DE0000E94380ACE0101960E944D0A89819A818B
:101DF0000E947E101093B0020E944D03B0CE0631B7
:101E000011050CF410CF3DCF64E1C701810F911D86
:101E10000E94AF099091390491509093390463E284
:101E200070E080E090E00E94E504045109F4FBCEEC
:101E30001C5E4ECFCF93DF93E4E7F4E0138212826F
:101E400088EE93E0A0E0B0E084839583A683B78317
:101E50002BE131E03183208325EC30E03587248786
:101E600024EC30E03787268720EC30E0318B208B64
:101E700021EC30E0338B228B22EC30E0358B248B4D
:101E800026EC30E0378B268B118E128E138E148E3B
:101E9000E1E1F5E01682178210861186128613861C
:101EA0001486158616861786108A118A128A138A56
:101EB000148A158AE6E6F5E01382128284839583FC
:101EC000A683B7838BE291E09183808381E0808B4E
:101ED0008AE080935F0582E080935E0589E08093CD
:101EE0005D05178616861586148688E0ABE7B5E093
:101EF000ED0119928A95E9F710925C0510925B0545
:101F000010925A051092590586E8858FE0E6F5E0B3
:101F10001182108213821282DF91CF910895EF9285
:101F2000FF920F931F93CF93DF93CDB7DEB76597E3
:101F30000FB6F894DEBF0FBECDBFE0917204F091F2
:101F4000730493E0899FE00DF11D11243397908174
:101F5000913059F5453148F5142F082FE42EF12C16
:101F6000A701CE0102960E94E5111E5F1093520454
:101F70008DE08093530400935404A701BE016E5F6B
:101F80007F4F85E594E00E94E51181E594E0659638
:101F90000FB6F894DEBF0FBECDBFDF91CF911F917A
:101FA0000F91FF90EF900C941D0780E065960FB69F
:101FB000F894DEBF0FBECDBFDF91CF911F910F917F
:101FC000FF90EF900895EE0FFF1F0590F491E02D24
:101FD0000994CF93DF938230910510F482E090E072
:101FE000E091CD05F091CE0520E030E0C0E0D0E0FA
:101FF000309711F14081518148175907C0F04817B7
:10200000590761F482819381209719F09B838A8319
:102010002BC09093CE058093CD0526C021153105A8
:1020200019F04217530718F49A01BE01DF01EF01BE
:102030000280F381E02DDCCF2115310509F1281B49
:10204000390B2430310590F412968D919C911397A1
:102050006115710521F0FB019383828304C0909385
:10206000CE058093CD05FD01329644C0FD01E20FFF
:10207000F31F81939193225031092D933C933AC0E1
:102080002091CB053091CC05232B41F420911301F5
:10209000309114013093CC052093CB052091110190
:1020A000309112012115310541F42DB73EB7409111
:1020B000150150911601241B350BE091CB05F091D1
:1020C000CC05E217F307A0F42E1B3F0B28173907A6
:1020D00078F0AC014E5F5F4F2417350748F04E0F84
:1020E0005F1F5093CC054093CB058193919302C021
:1020F000E0E0F0E0CF01DF91CF9108950F931F93BF
:10210000CF93DF93009709F48CC0FC0132971382C0
:1021100012820091CD051091CE050115110581F4B3
:1021200020813181820F931F2091CB053091CC0506
:102130002817390779F5F093CC05E093CB0571C0EA
:10214000D80140E050E0AE17BF0750F412962D9131
:102150003C911397AD012115310509F1D901F3CF58
:102160009D01DA013383228360817181860F971F7D
:102170008217930769F4EC0128813981260F371FF4
:102180002E5F3F4F318320838A819B81938382839B
:10219000452B29F4F093CE05E093CD0542C013966C
:1021A000FC93EE931297ED01499159919E01240FF2
:1021B000351FE217F30771F480819181840F951F19
:1021C000029611969C938E938281938113969C9391
:1021D0008E931297E0E0F0E0D80112968D919C91D9
:1021E0001397009719F0F8018C01F6CF8D919C910F
:1021F00098012E5F3F4F820F931F2091CB053091A6
:10220000CC052817390769F4309729F41092CE05C8
:102210001092CD0502C0138212821093CC05009358
:10222000CB05DF91CF911F910F910895A0E0B0E011
:10223000ECE1F1E10C942412EC01009721F4CB01C4
:102240000E94E90FB8C0FC01E60FF71F9C01225065
:102250003109E217F30708F4ACC0D9010D911C91C4
:10226000119706171707B0F00530110508F49FC045
:10227000C80104978617970708F499C002501109FE
:10228000061B170B019311936D937C93CF010E9452
:102290007E108DC05B01A01AB10A4C01800E911E08
:1022A000A091CD05B091CE0540E050E0E12CF12C9D
:1022B000109709F44AC0A815B905D1F56D907C9026
:1022C0001197630182E0C80ED11CCA14DB0480F1AF
:1022D000A3014A195B096A0182E0C80ED11C12965B
:1022E000BC9012971396AC91B5E0CB16D10440F098
:1022F000B282A38351834083D9016D937C930AC03A
:102300000E5F1F4FC301800F911FF90191838083DE
:10231000EB2DFA2FE114F10431F0D7011396FC9361
:10232000EE93129744C0F093CE05E093CD053FC0E5
:102330008D919C9111974817590708F4AC017D01C4
:1023400012960D90BC91A02DB3CF8091CB059091AA
:10235000CC0588159905E1F446175707C8F4809114
:10236000110190911201009741F48DB79EB74091F1
:10237000150150911601841B950BE817F907C8F455
:10238000F093CC05E093CB05F901718360830FC016
:10239000CB010E94E90F7C01009759F0A801BE0112
:1023A0000E94E511CE010E947E10C70104C0CE013B
:1023B00002C080E090E0CDB7DEB7EEE00C944012B2
:1023C00081E090E0F8940C945712FB01DC0102C00C
:1023D00001900D9241505040D8F70895FB01DC0167
:1023E00001900D920020E1F70895FB01DC0102C08D
:1023F00005900D9241505040D8F70895A1E21A2E51
:10240000AA1BBB1BFD010DC0AA1FBB1FEE1FFF1F98
:10241000A217B307E407F50720F0A21BB30BE40BE8
:10242000F50B661F771F881F991F1A9469F760952F
:102430007095809590959B01AC01BD01CF010895E9
:102440002F923F924F925F926F927F928F929F92C4
:10245000AF92BF92CF92DF92EF92FF920F931F93B2
:10246000CF93DF93CDB7DEB7CA1BDB0B0FB6F89463
:10247000DEBF0FBECDBF09942A88398848885F84A3
:102480006E847D848C849B84AA84B984C884DF8014
:10249000EE80FD800C811B81AA81B981CE0FD11DF8
:1024A0000FB6F894DEBF0FBECDBFED010895F894CE
:0224B000FFCF5C
:1024B20001800001080001020001800086580458D2
:1024C200040000CF05800000000000E4020009AD16
:1024D200028B029F022B0300000000C70800099C28
:1024E2000471045A045904564D4450565F317C31EC
:1024F2005F564D4450560D0A0022004C00520043D4
:102502004F4D4D414E4400203A004300204500000B
:00000001FF
