:100000000C946B020C94A6050C947F050C9493023F
:100010000C9493020C9493020C9493020C9493020C
:100020000C9493020C9493020C9493020C949302FC
:100030000C9493020C9493020C9493020C949302EC
:100040000C9435050C9493020C9489030C9463036F
:100050000C9493020C9493020C9493020C949302CC
:100060000C9493020C9493029607CC08CC08EA07F0
:100070001D083708CC083208CC088708CC0850087F
:100080008D0800000000240027002A000102040857
:1000900010204080010204081020010204081020F2
:1000A000040404040404040402020202020203031E
:1000B000030303030007060000030241D70000000A
:1000C0000000000000000000000000000000000030
:1000D0000000000000001F061000000000000000EB
:1000E0000400040101000006000090000000000070
:1000F000000000000000001F06101C0102000000AC
:1001000000000000000000000000000000001400DB
:1001100000001403900164001F06103802FF02580B
:1001200000050000000000000000000000100000BA
:100130000000000000000000000506105400000050
:1001400000000000000000000000000000000000AF
:10015000000000000000000000001F062000040452
:10016000020200012800010018040405050002280D
:1001700003010E0300002A041407001F06201C04BC
:1001800000032A00015541525469637304040505B4
:100190000004280301020500012A06001F0620387A
:1001A00004030200052A01010000040405050006FD
:1001B000280301020700042A06040908001F06207C
:1001C0005400072A04010600120000000A0004047B
:1001D00002020008280001011804041010001F0684
:1001E000207000092800019ECADC240EE5A9E093D6
:1001F000F3A3B50100406E04041313000A28001F86
:1002000006208C0301040B009ECADC240EE5A9E045
:1002100093F3A3B50200406E44101400000B0000DD
:100220001F0620A8020200000000000000000000DD
:100230000000000000000000000004041313000C84
:10024000001F0620C4280301100D009ECADC240EE6
:10025000E5A9E093F3A3B50300406E140014000079
:100260000D001F0620E00003020000000000000057
:100270000000000000000000000000000046140321
:100280000200001F0620FC0E2902010000040402E7
:1002900002000F2800010A180404050500102803B5
:1002A000010211001906211800272A04040901007F
:1002B000112A27010A0000000000000000000000D1
:1002C00000000000001F0640002A0001008004001A
:1002D000030000000202000804000B0000000302FB
:1002E000000204000D000F06401C000E2A2701002A
:1002F0008004001100000000000000000000000069
:1003000000000000000000130650009ECADC240E0E
:10031000E5A9E093F3A3B50000406E0000000000E3
:1003200000000000000000000F0660000000000058
:1003300000000000000000000000000000000000BD
:100340000000000000000000000606F00003D38853
:10035000000000000000000000000000000000009D
:1003600000000000000000000041646166727569D1
:100370007420426C75656672756974204C6F7720C5
:10038000456E65726779206E5246383030312050A4
:1003900072696E74206563686F2064656D6F000A12
:1003A0002A2053656E64696E67202D3E2022000A64
:1003B0002A204D736720746F2073656E64202D3E74
:1003C0002022002A20446973636F6E6E6563746532
:1003D00064206F72206164766572746973696E67F8
:1003E0002074696D6564206F7574002A20436F6EF8
:1003F0006E656374656421002A20416476657274B9
:100400006973696E6720737461727465640020207B
:1004100050697065204572726F7220436F64653A4F
:10042000203078004143492045767420506970653A
:10043000204572726F723A205069706520233A002D
:1004400045767420436D6420726573706F6E653AF3
:10045000204572726F722E2041726475696E6F2032
:10046000697320696E20616E207768696C65283138
:10047000293B206C6F6F700041434920436F6D6DC5
:10048000616E6420004572726F7220696E20414374
:100490004920536574757000002C20000000000096
:1004A000250028002B000000000023002600290062
:1004B0000000000800020100000304070000000023
:1004C00000000000436D6420517565756520467518
:1004D0006C6C0000F90F11241FBECFEFD8E0DEBF17
:1004E000CDBF11E0A0E0B1E0EEE8F6E202C0059079
:1004F0000D92AA36B107D9F725E0AAE6B1E001C00E
:100500001D92AA3DB207E1F712E0CBE6D2E004C0AB
:100510002197FE010E94C210CA36D107C9F70E9476
:100520003F0C0C9445130C940000FC01918D828DBE
:10053000981761F0828DDF01A80FB11D5D968C9137
:10054000928D9F5F9F73928F90E008958FEF9FEF42
:100550000895FC01918D828D981731F0828DE80FFE
:10056000F11D858D90E008958FEF9FEF0895FC01B8
:10057000918D228D892F90E0805C9F4F821B910985
:100580008F73992708958FE794E00E94B70221E0C6
:10059000892B09F420E0822F0895FC01848DDF016E
:1005A000A80FB11DA35ABF4F2C91848D90E00196E6
:1005B0008F739927848FA689B7892C93A089B189D5
:1005C0008C9180648C93938D848D981306C00288DF
:1005D000F389E02D80818F7D80830895EF92FF92D3
:1005E0000F931F93CF93DF93EC0181E0888F9B8D56
:1005F0008C8D981305C0E889F989808185FD24C018
:10060000F62E0B8D10E00F5F1F4F0F731127E02E9A
:100610008C8DE8120CC00FB607FCFACFE889F98977
:10062000808185FFF5CFCE010E94CD02F1CF8B8D69
:10063000FE01E80FF11DE35AFF4FF0820B8FEA89AC
:10064000FB898081806207C0EE89FF896083E88929
:10065000F98980818064808381E090E0DF91CF918F
:100660001F910F91FF90EF900895CF93DF93EC01CE
:10067000888D8823C9F0EA89FB89808185FD05C0C2
:10068000A889B9898C9186FD0FC00FB607FCF5CFFC
:10069000808185FFF2CFA889B9898C9185FFEDCF44
:1006A000CE010E94CD02E7CFDF91CF91089580E087
:1006B00090E0892B29F00E94C30281110C94000064
:1006C00008950E94BF121F920F920FB60F9211242D
:1006D0002F933F934F935F936F937F938F939F934A
:1006E000AF93BF93EF93FF938FE794E00E94CD0207
:1006F000FF91EF91BF91AF919F918F917F916F91FA
:100700005F914F913F912F910F900FBE0F901F90CF
:1007100018951F920F920FB60F9211242F938F935B
:100720009F93EF93FF93E0918F04F0919004808169
:10073000E0919504F091960482FD12C09081809121
:1007400098048F5F8F7320919904821751F0E09184
:100750009804F0E0E158FB4F958F8093980401C016
:100760008081FF91EF919F918F912F910F900FBEFC
:100770000F901F901895833081F028F4813099F004
:100780008230A1F008958730A9F08830B9F0843024
:10079000D1F4809180008F7D03C0809180008F779D
:1007A00080938000089584B58F7702C084B58F7DD3
:1007B00084BD08958091B0008F7703C08091B00010
:1007C0008F7D8093B00008953FB7F89480912B03FC
:1007D00090912C03A0912D03B0912E0326B5A89BD8
:1007E00005C02F3F19F00196A11DB11D3FBFBA2FC3
:1007F000A92F982F8827820F911DA11DB11DBC0123
:10080000CD0143E0660F771F881F991F4A95D1F7E6
:1008100008950895089520916405309165058091AB
:100820006605909167052817390749F0E09166053C
:10083000F0916705EE53FD4F808190E008958FEFB2
:100840009FEF0895209164053091650580916605BC
:100850009091670528173907E9F0E0916605F09156
:100860006705EE53FD4F8081209166053091670545
:100870002F5F3F4F309367052093660520916605F3
:10088000309167052F7333273093670520936605F2
:1008900090E008958FEF9FEF089580916405909107
:1008A00065052091660530916705821B930B8F7358
:1008B00099270895CF93DF93282F30E0F901E05571
:1008C000FB4F8491F901E457FF4FD491F901E056B1
:1008D000FF4FC491CC2391F081110E94BB03EC2FF8
:1008E000F0E0EE0FFF1FEA55FB4FA591B491EC919C
:1008F000ED2381E090E021F480E002C080E090E010
:10090000DF91CF9108951F93CF93DF93282F30E08D
:10091000F901E055FB4F8491F901E457FF4FD49161
:10092000F901E056FF4FC491CC23C9F0162F811175
:100930000E94BB03EC2FF0E0EE0FFF1FE456FB4FCD
:10094000A591B4918FB7F894111105C09C91ED2F2A
:10095000E095E92302C0EC91ED2BEC938FBFDF9182
:10096000CF911F910895CF93DF9390E0FC01E4575E
:10097000FF4F2491FC01E056FF4F8491882361F1E1
:1009800090E0880F991FFC01EE57FF4FC591D4915D
:10099000FC01E456FB4FA591B491611109C09FB7CA
:1009A000F8948881209582238883EC912E230BC0B4
:1009B000623061F49FB7F8943881822F8095832349
:1009C0008883EC912E2B2C939FBF06C08FB7F89491
:1009D000E8812E2B28838FBFDF91CF9108958F92CE
:1009E0009F92AF92BF92CF92DF92EF92FF926B01F4
:1009F0007C010E94E4034B015C01C114D104E104B9
:100A0000F104F1F00E94E403DC01CB01881999099B
:100A1000AA09BB09883E9340A105B10570F321E006
:100A2000C21AD108E108F10888EE880E83E0981E0A
:100A3000A11CB11CC114D104E104F10419F7DDCFEC
:100A4000FF90EF90DF90CF90BF90AF909F908F90EE
:100A500008952FB7F894609127037091280380912F
:100A6000290390912A032FBF08951F920F920FB66A
:100A70000F9211242F933F938F939F93AF93BF9324
:100A80008091270390912803A0912903B0912A0314
:100A90003091260326E0230F2D3720F40296A11D66
:100AA000B11D05C029E8230F0396A11DB11D209398
:100AB00026038093270390932803A0932903B093E0
:100AC0002A0380912B0390912C03A0912D03B091C8
:100AD0002E030196A11DB11D80932B0390932C032F
:100AE000A0932D03B0932E03BF91AF919F918F914F
:100AF0003F912F910F900FBE0F901F9018951F924E
:100B00000F920FB60F9211242F933F934F935F9341
:100B10006F937F938F939F93AF93BF93EF93FF93C5
:100B2000E0910F01F09110010995FF91EF91BF91B4
:100B3000AF919F918F917F916F915F914F913F9175
:100B40002F910F900FBE0F901F9018951F920F922C
:100B50000FB60F9211242F933F934F935F936F9390
:100B60007F938F939F93AF93BF93EF93FF93E09106
:100B70000D01F0910E010995FF91EF91BF91AF9199
:100B80009F918F917F916F915F914F913F912F91A5
:100B90000F900FBE0F901F90189520916905022E9F
:100BA000000C330B2330310529F022303105C1F41C
:100BB00030E001C031E02DB3882341F081E090E0C6
:100BC00001C0880F3A95EAF7822B08C081E090E0D7
:100BD00001C0880F3A95EAF7809582238DBB08956E
:100BE000FFCF0F931F93CF93DF93CDB7DEB7A197BE
:100BF0000FB6F894DEBF0FBECDBF83B78E7F83BF25
:100C0000E0916C01E23070F4E13011F0E89801C03D
:100C1000E998F0E0EE0FFF1FE35FFE4F89E094E0FC
:100C20009183808380916B01882399F02FB7F8948A
:100C300080916B01813059F48DB3809325039DB36E
:100C400080916A01809589238DBB2FBF02C02093BC
:100C5000250380E78CBD1DBC60E080916A050E9481
:100C600083048091750290917602891709F4ACC0D3
:100C700090E021E2289FF001299FF00D1124E35913
:100C8000FE4FDE01119601900D922A95E1F7019633
:100C900087709927809375028A818EBD00000DB4FC
:100CA00007FEFDCF8EB5809377028B818EBD00004D
:100CB0000DB407FEFDCF8EB5809378029A819923FB
:100CC00049F0292F30E0482F50E04217530714F421
:100CD0008FEF890F803208F08FE1A9E7B2E09E0123
:100CE0002C5F3F4FF9019E2F921B981748F491916A
:100CF0009EBD00000DB407FEFDCF9EB59D93F3CFC2
:100D000061E080916A050E94830480916B018823D1
:100D100061F09FB7F89420916B01809125032130F9
:100D200019F48DBB9FBF01C08FBF83B7816083BFA4
:100D300080916C010E945D0990917502809176020C
:100D4000981729F060E080916A050E948304409121
:100D500078024423D9F12091390430E089010F5FF2
:100D60001F4F0770112780913804801761F151E2FD
:100D7000529FC001539F900D1124FC01E05DFC4F78
:100D8000108250E04F5F5F4F68E772E08F5C9C4FCE
:100D90000E94C41200933904F894809139048F5F43
:100DA0008770909138047894891310C080E0A196E0
:100DB0000FB6F894DEBF0FBECDBFDF91CF911F916C
:100DC0000F910C94CD05FFCF1A8266CFA1960FB676
:100DD000F894DEBF0FBECDBFDF91CF911F910F9171
:100DE00008950F931F93CF93DF938C01FC01D18162
:100DF0004D2F50E060E070E02AE08FE794E00E9421
:100E0000070B61E671E08FE794E00E94640BC0E09D
:100E1000F801EC0FF11D418150E060E070E020E14D
:100E20008FE794E00E94070B69E974E08FE794E094
:100E30000E94CE0ACF5FDC1758F768E974E08FE7AD
:100E400094E0DF91CF911F910F910C94500B0F9371
:100E50001F93CF93DF93FC0141814032C8F58C0191
:100E60002091760230E0E9012196C770DD2780915C
:100E700075028C17C1F051E2529FC001539F900D33
:100E80001124FC01E359FE4F108250E04F5F5F4F89
:100E9000B8016F5F7F4F82599E4F0E94C412C0936A
:100EA0007602C1E001C0C0E080912F03882349F0A1
:100EB00064E671E08FE794E00E94640BC8010E9431
:100EC000F10660E080916A050E9483048C2F01C0C6
:100ED00080E0DF91CF911F910F910895ECE5F4E050
:100EE00025E021832FE022839483838376836583A7
:100EF000CF010C9427070F931F93CF93DF93EC013F
:100F000083E093E00E94660B882309F445C1E091D9
:100F100005038E2F90E0FC01E158F109ED30F10559
:100F200008F03AC1EC5CFF4F0C94C21080910803AA
:100F30008093410480910603823019F08330B9F127
:100F40002BC180913F04893010F460E01BC000E0A9
:100F500010E028E830E090913F04892F869586952F
:100F60008695181740F4602F88E00E94EB0B9C01D7
:100F70001F5F085FF0CF892F877039F0612F660FF0
:100F8000660F660F0E94EB0B9C012230310509F4BD
:100F900003C18889882309F4FFC065E874E08FE7FE
:100FA00094E0DF91CF911F910F910C94500B8D899C
:100FB000882309F463C0BE016B5E7F4FFB01019083
:100FC0000020E9F73197AF01461B570B81E00E94E3
:100FD0006E1054C080910703882301F1888988230B
:100FE000E1F068E774E08FE794E00E94CE0A409158
:100FF000060350E060E070E020E18FE794E00E949B
:10100000070B66E471E08FE794E00E94F20A60E467
:1010100074E08FE794E00E94500BFFCF80910603AD
:10102000893009F0B9C049E068E073E084E0DF91FD
:10103000CF911F910F910C946E1080914104809379
:10104000440481E080935D0489E080935E048CE534
:1010500094E00E94270785E88D8FEC85FD85309709
:1010600009F0099580914B0483FF96C085C086E8FE
:101070008D8FEC85FD85309709F009956B897C890A
:1010800089899A890E946E0781E88D8FEC85FD859C
:10109000309709F481C0DF91CF911F910F9109948E
:1010A00060910403625020E030E0462F50E02417A6
:1010B00035070CF5809164059091650501968F7355
:1010C0009927E0916605F09167058E179F0781F0DB
:1010D000E0916405F0916505EE53FD4FD901AD5FD8
:1010E000BC4F14967C917083909365058093640542
:1010F0002F5F3F4FDCCFEE85FF85309709F44CC062
:1011000087E093E0DF91CF911F910F910994909127
:10111000060380914404890F2CC08889882331F10B
:1011200064E274E08FE794E00E94CE0A40910603E7
:1011300050E060E070E02AE08FE794E00E94070B47
:101140006EE074E08FE794E00E94CE0A40910703BE
:1011500050E060E070E020E18FE794E00E94070B30
:1011600066E471E08FE794E00E94F20A8091440403
:101170008F5F8093440410C08091020381110CC0E2
:10118000C1E0C0935D0483E180935E048CE594E04C
:101190000E942707C0930203DF91CF911F910F9107
:1011A00008950F931F93CF93DF931F92CDB7DEB7B0
:1011B0008C0169838091440481110AC0C8010E9496
:1011C0007B076AE070E080E090E00E94EF04F2CFDD
:1011D00080914B0483FF13C061E0CE0101960E9411
:1011E00079098091440481508093440463E270E063
:1011F00080E090E00E94EF0481E090E005C0C8012B
:101200000E947B0780E090E00F90DF91CF911F91CB
:101210000F910895CF92DF92EF92FF920F931F9359
:10122000CF93DF936C017A018B01C0E0D0E0CE1543
:10123000DF0589F0D8016D918D01D601ED91FC910A
:101240000190F081E02DC6010995892B11F47E01F2
:1012500002C02196ECCFC701DF91CF911F910F9172
:10126000FF90EF90DF90CF900895EFE7F4E0A08932
:10127000B18982E08C93A485B5851C92A685B7853B
:1012800087E68C93108EA489B58986E08C93A28919
:10129000B3898C9180618C93A289B3898C91886089
:1012A0008C93A289B3898C9180688C930288F3898E
:1012B000E02D80818F7D808308958230C8F4E82FEF
:1012C000F0E0EE0FFF1FE35FFE4F21EF35E03183CB
:1012D0002083813039F0809169008C7F8093690090
:1012E000E89A089580916900837F80936900E99A64
:1012F0000895EF92FF921F93CF93DF93CDB7DEB7A0
:1013000065970FB6F894DEBF0FBECDBFE0917D04A8
:10131000F0917E04278130852230310519F0243088
:10132000310569F5653158F5162FBC01E12EF12C18
:10133000A701CE0102960E94C4121E5F10935D04A5
:1013400085E180935E0483E080935F04A701BE0182
:101350006E5F7F4F80E694E00E94C4121092D50524
:101360008CE594E065960FB6F894DEBF0FBECDBF56
:10137000DF91CF911F91FF90EF900C94270780E0B1
:1013800065960FB6F894DEBF0FBECDBFDF91CF914B
:101390001F91FF90EF900895CF93DF93EC01809120
:1013A000440481110BC081E795E00E947B076AE04D
:1013B00070E080E090E00E94EF04F1CF80914B0458
:1013C00083FD05C081E795E00E947B07F7CF61E0D0
:1013D000CE010E9479098091440481508093440495
:1013E00063E270E080E090E00E94EF0480E090E033
:1013F000DF91CF910895CF93DF93EC0184E190E0EA
:101400000E94C8102C813D81232B71F0E881F98165
:10141000309751F020812C3421F0223529F422E03C
:1014200001C021E0FC012083DF91CF9108950F934B
:101430001F93CF93DF93EC0188819981009729F066
:101440002A813B812617370788F48B016F5F7F4F16
:101450000E94F511009761F0998388831B830A83AA
:101460002C813D81232B11F4FC01108281E001C00D
:1014700080E0DF91CF911F910F910895CF93DF937B
:10148000EC0188819981009711F00E945D11198209
:1014900018821D821C821B821A82DF91CF910895CF
:1014A000EF92FF920F931F93CF93DF93EC017B0199
:1014B0008A01BA010E94170A811104C0CE010E945C
:1014C0003E0A07C01D830C83B701888199810E9461
:1014D000CD12CE01DF91CF911F910F91FF90EF9030
:1014E0000895CF93DF93EC01FB018617970761F016
:1014F000608171816115710529F0448155810E94D7
:10150000500A02C00E943E0ACE01DF91CF91089599
:10151000FC01808191810C945D11FC01118210828B
:1015200013821282158214826115710551F0FB013C
:1015300001900020E9F73197AF01461B570B0C943F
:10154000500A08950F931F93CF93DF938C018AE085
:1015500090E00E94C810EC0168E471E00E948D0ADE
:10156000B801CE010E94710AE0916B05F0916C0503
:10157000FF83EE8319861886309719F0D187C087CC
:1015800004C0D0936E05C0936D05D0936C05C093D5
:101590006B05DF91CF911F910F910895EF92FF920C
:1015A0000F931F93CF93DF938C017B01C0E0D0E0BA
:1015B000F701EC0FFD1F6491662361F0D801ED91F6
:1015C000FC910190F081E02DC8010995892B11F063
:1015D0002196EECFCE01DF91CF911F910F91FF9019
:1015E000EF9008956115710579F0FB0101900020DD
:1015F000E9F73197AF01461B570BDC01ED91FC91E8
:101600000280F381E02D099480E090E008954F92EC
:101610005F926F927F92EF92FF920F931F93CF93FF
:10162000DF93CDB7DEB7A1970FB6F894DEBF0FBE3C
:10163000CDBF7C01FA01CB0119A2223008F42AE0C7
:101640008E010F5D1F4F422E512C612C712CBF015A
:10165000A30192010E94EC12F901CA010150110983
:101660006A3014F4605D01C0695CD8016C93232B6F
:10167000242B252B61F7B801C7010E94F20AA1961D
:101680000FB6F894DEBF0FBECDBFDF91CF911F9193
:101690000F91FF90EF907F906F905F904F90089523
:1016A0000F931F93CF93DF93EC010E94CE0A8C011E
:1016B00066E471E0CE010E94F20A800F911FDF9173
:1016C000CF911F910F9108950C94F20A0F931F93DD
:1016D000CF93DF93EC01F894109139040091380412
:1016E0007894E091380480913904E81759F181E247
:1016F0008E9FF0011124E05DFC4FDE0101900D9200
:101700008A95E1F78091380490E0019687709927D7
:101710008093380480912F03882349F066E671E0B6
:101720008FE794E00E94640BCE010E94F106812FA6
:1017300090E0019687709927081306C081E00E9407
:10174000CD0502C080E001C081E09A819838A9F0FF
:10175000993851F19638D1F5E3E5F4E098E09E0F21
:10176000DF0118971C9211929E13FACF10925B041E
:10177000909141049093440429C0FE013B96A3E557
:10178000B4E0AE014D5E5F4F9F0128503109E90181
:1017900098819D0128503109E901988391919D9389
:1017A000E417F50789F712C02B813C81309346047A
:1017B000209345042D813E813093480420934704B3
:1017C0002F81388530934A0420934904DF91CF91CB
:1017D0001F910F910895EF92FF920F931F93CF9354
:1017E000DF93F82E81E2689FE001112400E010E011
:1017F000E12CEF1421F198012C0F3D1F60913D0465
:1018000070913E04620F731FFB013196449150E0CA
:101810004E5F5F4F84EB95E00E94E31284EB95E00E
:101820000E9427070F5D1F4F811107C064EC74E011
:101830008FE794E00E94500B19C0E394DACFC0E028
:1018400082E995E00E94660B8823D1F3CF5F8091F7
:101850009405843859F4909196058FEF890F823062
:1018600010F4FC12EDCF892F90E002C081E890E0E7
:10187000DF91CF911F910F91FF90EF900895CF933B
:10188000DF93CDB7DEB72C970FB6F894DEBF0FBE4F
:10189000CDBF789484B5826084BD84B5816084BDF9
:1018A00085B5826085BD85B5816085BD80916E00FE
:1018B000816080936E00109281008091810082602F
:1018C000809381008091810081608093810080916C
:1018D00080008160809380008091B100846080935B
:1018E000B1008091B00081608093B00080917A0057
:1018F000846080937A0080917A00826080937A007D
:1019000080917A008E7F80937A0080917A0080683F
:1019100080937A001092C1001092600510926105C8
:10192000109262051092630510921E0510921F0519
:10193000109220051092210560ED77E080E090E0A4
:101940000E94EF048FE794E090935F0580935E051B
:101950000E9435090E94290560931E0570931F059A
:10196000809320059093210567E371E080915E05E7
:1019700090915F050E94640B6AE070E080E090E067
:101980000E94EF0481E0809332050E94350969E6E8
:1019900073E08FE794E00E94500B60E085E00E94C6
:1019A000B30460E086E00E94B30488E0E9E5F1E07A
:1019B000A6E8B5E001900D928A95E1F710928305B3
:1019C0001092820580E590E09093850580938405D0
:1019D00080E091E090933B0480933A0484E080930C
:1019E0003C0484EB90E090933E0480933D0485E1B9
:1019F00080933F04A3E5B4E04DEA52E088E0840F11
:101A00009D0128503109F90110821D92FA011192AD
:101A1000AF018E13F5CF1092AC021092AB02109270
:101A2000AA021092A9028FEF8093A8028093A702C6
:101A30008093A6021092A5021092A4021092A30213
:101A40001092A2021092A1021092A00210929F0284
:101A500010929E0210929D0280913A0490913B0454
:101A600090937E0480937D0484E080939C0284EBB9
:101A700090E090939B0280939A0285E18093990273
:101A8000109278021FB7F89480919802811127C0B4
:101A9000EAEAF0E08491E6E9F0E09491E82FF0E0E2
:101AA000EE0FFF1FEE57FF4FA591B491EC91E92384
:101AB00021F461E08AE00E94830461E08AE00E94F0
:101AC000B3048CB580618CBD8CB580648CBD61E045
:101AD0008DE00E94B30461E08BE00E94B30480912A
:101AE00098028F5F809398021FBF10922F0310926D
:101AF00075021092760280E090E0FC01E359FE4FFF
:101B00001182128281968830F1E09F07B1F710921E
:101B100038041092390480E090E0FC01E359FE4F54
:101B2000118212828196883021E09207B1F761E03C
:101B3000809168050E94B30462E0809169050E946B
:101B4000B30461E080916A050E94B30461E0809172
:101B500068050E94830464E670E080E090E00E94E3
:101B6000EF0460E0809168050E94830461E0809149
:101B700068050E94830460E08DE00E94830460E0B9
:101B80008BE00E94830461E080916A050E948304D7
:101B900060E08DE00E9483048FEF80936C01809160
:101BA0006905082E000C990B8230910519F41092EA
:101BB0006C0105C0039719F481E080936C016EE11C
:101BC00070E080E090E00E94EF0480916C019FB78C
:101BD000F894882349F0813011F482E006C082E055
:101BE00080936B0180E001C081E020916A01822B2B
:101BF00080936A0180916B01811103C081E0809321
:101C00006B019FBF80916C010E945D0991E4D92E08
:101C1000CC24C39481E795E00E947B0710918E0548
:101C200080910C011817A1F0113819F468EF73E0D6
:101C300009C0153819F46BEE73E004C0163831F49E
:101C400063EC73E08FE794E00E94500B10930C015B
:101C5000153809F03BC18091C102811197C068E439
:101C600071E0CE0107960E948D0A41E050E069E4E0
:101C700071E0CE0107960E94500A84E190E00E9434
:101C8000C8107C010097B9F00B851C850115110562
:101C900019F4DC011C920FC00331110510F003E1AF
:101CA00010E06F817885A801C7010E94D412F70166
:101CB000E00FF11F10824B855C854531510510F412
:101CC0004A0103C084E1882E912C84E190E00E94B7
:101CD000C8105C01FC01D0826BE471E08FE794E0F6
:101CE0000E94640B1A8219821C821B821E821D8232
:101CF000BE01695F7F4FCE0101960E94710A0D817E
:101D00001E810F5F1F4FB801CE0101960E94170A76
:101D1000882309F469C129813A818D819E8161E519
:101D200071E0820F931F0E94CD121E830D834D819F
:101D30005E8169817A818FE794E00E940A09CE0171
:101D400001960E94880AB7018FE794E00E94640B15
:101D500061E571E08FE794E00E94640BA401990CA7
:101D6000660B770B2AE08FE794E00E94070B66E48E
:101D700071E08FE794E00E94F20AC5010E94CC094D
:101D8000C092C102CE0107960E94880A00916D059B
:101D900010916E050115110539F468E471E0CE016A
:101DA00007960E948D0A39C0D8011896ED91FC91D2
:101DB0001997F0936E05E0936D05309729F4109212
:101DC0006C0510926B0502C0178216821A82198266
:101DD0001C821B821E821D82B801CE0101960E94C8
:101DE000710AC8010E94880AC8010E945D11898198
:101DF0009A8198878F838B819C819A8789878D812F
:101E00009E819C878B871A8219821C821B821E826C
:101E10001D82CE0101960E94880A8B859C85892BA4
:101E200009F450C0EF81F8858081882309F44AC005
:101E30006FEA73E08FE794E00E94CE0A4B855C85E1
:101E40006F8178858FE794E00E940A0963E571E06D
:101E50008FE794E00E94F20A66E471E08FE794E075
:101E60000E94F20A1A8219821C821B821E821D8223
:101E7000BE01695F7F4FCE0101960E94710ACE01BB
:101E800001960E94FB098C01CE0101960E94880AEE
:101E90006FE973E08FE794E00E94CE0AB8018FE704
:101EA00094E00E94640B63E571E08FE794E00E9488
:101EB000F20A66E471E08FE794E00E94F20AC8013A
:101EC0000E94CC09CE0107960E94880A85E00E94F4
:101ED0005A0411E0892B09F410E08091C002181710
:101EE00051F00E9429056093BC027093BD0280935B
:101EF000BE029093BF020E9429058090BC02909080
:101F0000BD02A090BE02B090BF02DC01CB018819D7
:101F10009909AA09BB0985369105A105B105B0F05B
:101F20008091BB02181791F01093BB0211110EC0E3
:101F300065E571E0CE0101960E948D0ACE01019601
:101F40000E94A20ACE0101960E94880A1093C00244
:101F500086E00E945A04FF24F394892B09F4F12CA3
:101F60000F2D10E08091BA0290E00817190751F088
:101F70000E9429056093B6027093B7028093B8025D
:101F80009093B9020E9429058090B6029090B70202
:101F9000A090B802B090B902DC01CB018819990970
:101FA000AA09BB0985369105A105B105C0F080914C
:101FB000B50290E00817190791F0F092B502F11000
:101FC0000EC067E571E0CE0101960E948D0ACE0138
:101FD00001960E94A20ACE0101960E94880AF09200
:101FE000BA020E94570316CECE0101960E943E0A05
:101FF0009ECECF93DF93EFE7F4E01382128288EE58
:1020000093E0A0E0B0E084839583A683B7832BE1BF
:1020100031E03183208325EC30E03587248724ECC0
:1020200030E03787268720EC30E0318B208B21ECA5
:1020300030E0338B228B22EC30E0358B248B26EC86
:1020400030E0378B268B118E128E138E148EECE1BE
:10205000F5E0168217821086118612861386148682
:10206000158616861786108A118A128A138A148A90
:10207000158AE1E7F5E01382128284839583A683B3
:10208000B7838BE291E09183808381E0808B8AE04B
:1020900080936A0582E08093690589E080936805F2
:1020A000178616861586148688E0A6E8B5E0ED0149
:1020B00019928A95E9F710926705109266051092B9
:1020C00065051092640586E8858FEBE6F5E01182E0
:1020D000108213821282DF91CF910895EF92FF92C6
:1020E0000F931F93CF93DF93CDB7DEB765970FB6EE
:1020F000F894DEBF0FBECDBFE0917D04F0917E0469
:1021000093E0899FE00DF11D112433979081913068
:1021100059F5453148F5142F082FE42EF12CA7016D
:10212000CE0102960E94C4121E5F10935D048DE0E2
:1021300080935E0400935F04A701BE016E5F7F4F32
:1021400080E694E00E94C4128CE594E065960FB698
:10215000F894DEBF0FBECDBFDF91CF911F910F91DD
:10216000FF90EF900C94270780E065960FB6F894E7
:10217000DEBF0FBECDBFDF91CF911F910F91FF90BA
:10218000EF900895EE0FFF1F0590F491E02D099454
:10219000CF93DF938230910510F482E090E0E091DC
:1021A000D805F091D90520E030E0C0E0D0E03097CC
:1021B00011F14081518148175907C0F0481759075C
:1021C00061F482819381209719F09B838A832BC0CD
:1021D0009093D9058093D80526C02115310519F0B3
:1021E0004217530718F49A01BE01DF01EF01028084
:1021F000F381E02DDCCF2115310509F1281B390BC6
:102200002430310590F412968D919C9113976115AD
:10221000710521F0FB019383828304C09093D9055B
:102220008093D805FD01329644C0FD01E20FF31FF3
:1022300081939193225031092D933C933AC0209180
:10224000D6053091D705232B41F42091130130910D
:1022500014013093D7052093D605209111013091B8
:1022600012012115310541F42DB73EB740911501FA
:1022700050911601241B350BE091D605F091D7053E
:10228000E217F307A0F42E1B3F0B2817390778F04D
:10229000AC014E5F5F4F2417350748F04E0F5F1FAC
:1022A0005093D7054093D6058193919302C0E0E007
:1022B000F0E0CF01DF91CF9108950F931F93CF935B
:1022C000DF93009709F48CC0FC01329713821282CD
:1022D0000091D8051091D9050115110581F42081CF
:1022E0003181820F931F2091D6053091D705281791
:1022F000390779F5F093D705E093D60571C0D80179
:1023000040E050E0AE17BF0750F412962D913C917B
:102310001397AD012115310509F1D901F3CF9D01C5
:10232000DA013383228360817181860F971F8217C0
:10233000930769F4EC0128813981260F371F2E5F3E
:102340003F4F318320838A819B8193838283452BF6
:1023500029F4F093D905E093D80542C01396FC9375
:10236000EE931297ED01499159919E01240F351F6B
:10237000E217F30771F480819181840F951F029613
:1023800011969C938E938281938113969C938E9346
:102390001297E0E0F0E0D80112968D919C9113978E
:1023A000009719F0F8018C01F6CF8D919C9198015E
:1023B0002E5F3F4F820F931F2091D6053091D70596
:1023C0002817390769F4309729F41092D90510922B
:1023D000D80502C0138212821093D7050093D60548
:1023E000DF91CF911F910F910895A0E0B0E0EBEF46
:1023F000F1E10C941213EC01009721F4CB010E943F
:10240000C810B8C0FC01E60FF71F9C01225031092B
:10241000E217F30708F4ACC0D9010D911C91119794
:1024200006171707B0F00530110508F49FC0C80162
:1024300004978617970708F499C002501109061BE4
:10244000170B019311936D937C93CF010E945D1143
:102450008DC05B01A01AB10A4C01800E911EA091A3
:10246000D805B091D90540E050E0E12CF12C10974F
:1024700009F44AC0A815B905D1F56D907C90119763
:10248000630182E0C80ED11CCA14DB0480F1A301F1
:102490004A195B096A0182E0C80ED11C1296BC90F1
:1024A00012971396AC91B5E0CB16D10440F0B282EE
:1024B000A38351834083D9016D937C930AC00E5F3F
:1024C0001F4FC301800F911FF90191838083EB2D72
:1024D000FA2FE114F10431F0D7011396FC93EE9337
:1024E000129744C0F093D905E093D8053FC08D9171
:1024F0009C9111974817590708F4AC017D01129679
:102500000D90BC91A02DB3CF8091D6059091D705A9
:1025100088159905E1F446175707C8F48091110111
:1025200090911201009741F48DB79EB7409115012B
:1025300050911601841B950BE817F907C8F4F09326
:10254000D705E093D605F901718360830FC0CB01F5
:102550000E94C8107C01009759F0A801BE010E949A
:10256000C412CE010E945D11C70104C0CE0102C099
:1025700080E090E0CDB7DEB7EEE00C942E1381E062
:1025800090E0F8940C944513FB01DC0102C001902B
:102590000D9241505040D8F70895FB01DC010190A5
:1025A0000D920020E1F70895FB01DC0141505040FD
:1025B00048F001900D920020C9F701C01D924150D2
:1025C0005040E0F70895FB01DC0102C005900D9238
:1025D00041505040D8F70895A1E21A2EAA1BBB1B08
:1025E000FD010DC0AA1FBB1FEE1FFF1FA217B307DF
:1025F000E407F50720F0A21BB30BE40BF50B661FF5
:10260000771F881F991F1A9469F7609570958095B8
:1026100090959B01AC01BD01CF0108952F923F928F
:102620004F925F926F927F928F929F92AF92BF92E2
:10263000CF92DF92EF92FF920F931F93CF93DF938E
:10264000CDB7DEB7CA1BDB0B0FB6F894DEBF0FBEEB
:10265000CDBF09942A88398848885F846E847D8438
:102660008C849B84AA84B984C884DF80EE80FD803A
:102670000C811B81AA81B981CE0FD11D0FB6F894B0
:0E268000DEBF0FBECDBFED010895F894FFCF71
:10268E000180000108000102000180008609040992
:10269E00040000DA05800000000000EE020A09B70F
:1026AE00029502A902350300000000D1080A094D67
:1026BE000422040B040A04564D4450565F317C31FB
:1026CE005F564D4450560D0A00410053656E64200E
:1026DE003A200022004C005200434F4D4D414E44D3
:0A26EE0000203A00430020450000E0
:107800000C94343C0C94513C0C94513C0C94513CE1
:107810000C94513C0C94513C0C94513C0C94513CB4
:107820000C94513C0C94513C0C94513C0C94513CA4
:107830000C94513C0C94513C0C94513C0C94513C94
:107840000C94513C0C94513C0C94513C0C94513C84
:107850000C94513C0C94513C0C94513C0C94513C74
:107860000C94513C0C94513C11241FBECFEFD8E036
:10787000DEBFCDBF11E0A0E0B1E0EAE8FFE702C063
:1078800005900D92A230B107D9F712E0A2E0B1E065
:1078900001C01D92AD30B107E1F70E942D3D0C945F
:1078A000C33F0C94003C982F95959595959595958B
:1078B000905D8F708A307CF0282F295A8091C0000B
:1078C00085FFFCCF9093C6008091C00085FFFCCF60
:1078D0002093C6000895282F205DF0CF982F809127
:1078E000C00085FFFCCF9093C6000895EF92FF92F1
:1078F0000F931F93EE24FF2487018091C00087FD22
:1079000017C00894E11CF11C011D111D81E2E8164D
:1079100081EAF80687E0080780E0180770F3E09135
:107920000401F091050109958091C00087FFE9CF1E
:107930008091C6001F910F91FF90EF9008950E94D3
:10794000763C982F8091C00085FFFCCF9093C600B5
:1079500091362CF490330CF09053892F089597555D
:10796000892F08951F930E949F3C182F0E949F3CCF
:107970001295107F810F1F9108951F93182F882350
:1079800021F00E94763C1150E1F71F9108951F935A
:10799000182F0E94763C803249F0809103018F5F5E
:1079A000809303018530C1F01F9108958091C0003C
:1079B00085FFFCCF84E18093C6008091C00085FFE5
:1079C000FCCF1093C6008091C00085FFFCCF80E102
:1079D0008093C6001F910895E0910401F091050184
:1079E00009951F9108950E94763C803241F0809164
:1079F00003018F5F80930301853081F008958091AA
:107A0000C00085FFFCCF84E18093C6008091C00058
:107A100085FFFCCF80E18093C6000895E0910401CA
:107A2000F09105010995089548EC50E08823A1F0F4
:107A30002D9A28EE33E0FA013197F1F721503040CA
:107A4000D1F72D9828EE33E0FA013197F1F7215064
:107A50003040D1F7815061F708953F924F925F9285
:107A60006F927F928F929F92AF92BF92CF92DF924E
:107A7000EF92FF920F931F93CF93DF93000082E06A
:107A80008093C00080E18093C4001092C50088E11B
:107A90008093C10086E08093C2005098589A259A3E
:107AA00081E00E94143D24E1F22E9EE1E92E85E959
:107AB000D82E0FE0C02E10E1B12EAA24A394B1E479
:107AC0009B2EA6E58A2EF2E57F2EE0E26E2E79E46B
:107AD000572E63E5462E50E5352E0E94763C8033C6
:107AE000B1F18133B9F1803409F46FC0813409F404
:107AF00076C0823409F485C0853409F488C08035A5
:107B000031F1823521F1813511F1853509F485C0D6
:107B1000863509F48DC0843609F496C0843709F49B
:107B200003C1853709F472C1863709F466C08091B4
:107B300003018F5F80930301853079F6E0910401A2
:107B4000F091050109950E94763C803351F60E9420
:107B5000F33CC3CF0E94763C803249F78091C0004D
:107B600085FFFCCFF092C6008091C00085FFFCCF5E
:107B70009092C6008091C00085FFFCCF8092C60025
:107B80008091C00085FFFCCF7092C6008091C0003C
:107B900085FFFCCF6092C6008091C00085FFFCCFBE
:107BA0005092C6008091C00085FFFCCF4092C60075
:107BB0008091C00085FFFCCF3092C6008091C0004C
:107BC00085FFFCCFB092C60088CF0E94763C8638F5
:107BD00008F4BDCF0E94763C0E94F33C7ECF0E9409
:107BE000763C803809F49CC0813809F40BC1823896
:107BF00009F430C1883909F48FC080E00E94C73C85
:107C00006CCF84E10E94BD3C0E94F33C66CF85E0CE
:107C10000E94BD3C0E94F33C60CF0E94763C809362
:107C200006010E94763C809307010E94F33C55CFE9
:107C30000E94763C803309F411C183E00E94BD3C70
:107C400080E00E94C73C49CF0E94763C80930902A5
:107C50000E94763C8093080280910C028E7F809374
:107C60000C020E94763C853409F409C18091080217
:107C700090910902892B89F000E010E00E94763C87
:107C8000F801E85FFE4F80830F5F1F4F809108026D
:107C9000909109020817190788F30E94763C8032F8
:107CA00009F045CF80910C0280FFF5C0609106017C
:107CB00070910701660F771F7093070160930601AB
:107CC000A0910802B09109021097C9F0E8E0F1E034
:107CD0009B01AD014E0F5F1FF999FECF32BD21BD53
:107CE000819180BDFA9AF99A2F5F3F4FE417F5070B
:107CF00099F76A0F7B1F70930701609306018091CB
:107D0000C00085FFFCCFF092C6008091C00085FFC7
:107D1000FCCFB092C600E1CE83E00E94C73CDDCE2E
:107D200082E00E94C73CD9CE0E94763C8093090233
:107D30000E94763C80930802809106019091070191
:107D4000880F991F90930701809306010E94763C4B
:107D5000853409F49AC080910C028E7F80930C02C6
:107D60000E94763C803209F0B8CE8091C00085FF39
:107D7000FCCFF092C600A0910802B09109021097C2
:107D8000C1F180910C02082F0170182F1695117007
:107D9000E0910601F0910701AF014F5F5F4FBA011B
:107DA00020E030E00023B1F4112339F49491809164
:107DB000C00085FFFCCF9093C6002F5F3F4FCB01E3
:107DC0000196FA012A173B0780F4BC014F5F5F4F11
:107DD000002351F3F999FECFF2BDE1BDF89A90B5B9
:107DE0008091C00085FFFCCFE6CF709307016093C0
:107DF00006018091C00085FDE5CE8091C00085FF21
:107E0000F8CFE0CE81E00E94C73C67CE0E94763C6E
:107E1000803209F08CCE8091C00085FFFCCFF092BB
:107E2000C6008091C00085FFFCCFE092C600809123
:107E3000C00085FFFCCFD092C6008091C00085FFB6
:107E4000FCCFC092C6008091C00085FFFCCFB092ED
:107E5000C60043CE80E10E94C73C3FCE0E94763CE4
:107E60000E94763C182F0E94763C112309F483C0AF
:107E7000113009F484C08FE00E94C73C2ECE80915F
:107E80000C02816080930C02F1CE80910C02816023
:107E900080930C0265CF809107018823880F880B9F
:107EA0008A2180930B028091060190910701880F2F
:107EB000991F90930701809306018091080280FF2B
:107EC00009C08091080290910902019690930902DD
:107ED00080930802F894F999FECF1127E0910601EA
:107EE000F0910701C8E0D1E0809108029091090269
:107EF000103091F40091570001700130D9F303E084
:107F000000935700E8950091570001700130D9F3B4
:107F100001E100935700E8950990199000915700EE
:107F200001700130D9F301E000935700E8951395F3
:107F3000103498F011270091570001700130D9F3E7
:107F400005E000935700E89500915700017001305B
:107F5000D9F301E100935700E8953296029709F0B2
:107F6000C7CF103011F00296E5CF11248091C000E8
:107F700085FFC5CEC8CE8EE10E94C73CAECD85E957
:0A7F80000E94C73CAACDF894FFCF81
:027F8A00800075
:040000030000780081
:00000001FF