:100000000C9461020C949C050C9475050C94890267
:100010000C9489020C9489020C9489020C94890234
:100020000C9489020C9489020C9489020C94890224
:100030000C9489020C9489020C9489020C94890214
:100040000C942B050C9489020C943E040C94180417
:100050000C9489020C9489020C9489020C948902F4
:100060000C9489020C9489028C07C208C208E0072C
:1000700013082D08C2082808C2087D08C2084608CF
:10008000830800000000250028002B00000000006D
:1000900023002600290000000008000201000003E0
:1000A0000407000000000000000000000000240021
:1000B00027002A00010204081020408001020408E1
:1000C00010200102040810200404040404040404A1
:1000D00002020202020203030303030300070600F5
:1000E00000030241D70000000000000000000000F3
:1000F00000000000000000000000000000001F06DB
:1001000010000000000000000400040101000006CF
:100110000000900000000000000000000000001F30
:1001200006101C010200000000000000000000009A
:10013000000000000000140000001403900164009F
:100140001F06103802FF02580005000000000000E2
:10015000000000000010000000000000000000008F
:100160000005061054000000000000000000000020
:10017000000000000000000000000000000000007F
:1001800000001F06200004040202000128000100F4
:10019000180404050500022803010E0300002A04C8
:1001A0001407001F06201C0400032A0001554152B9
:1001B0005469637304040505000428030102050063
:1001C000012A06001F06203804030200052A010147
:1001D0000000040405050006280301020700042AA4
:1001E00006040908001F06205400072A040106001F
:1001F000120000000A0004040202000828000101A5
:100200001804041010001F06207000092800019E29
:10021000CADC240EE5A9E093F3A3B50100406E0407
:10022000041313000A28001F06208C0301040B008E
:100230009ECADC240EE5A9E093F3A3B50200406E4C
:1002400044101400000B00001F0620A8020200004A
:10025000000000000000000000000000000000009E
:10026000000004041313000C001F0620C42803011F
:10027000100D009ECADC240EE5A9E093F3A3B5039C
:1002800000406E14001400000D001F0620E0000363
:10029000020000000000000000000000000000005C
:1002A00000000000004614030200001F0620FC0EA0
:1002B000290201000004040202000F2800010A18AC
:1002C0000404050500102803010211001906211875
:1002D00000272A0404090100112A27010A0000004E
:1002E000000000000000000000000000001F0640A9
:1002F000002A000100800400030000000202000840
:1003000004000B0000000302000204000D000F06B1
:10031000401C000E2A27010080040011000000008C
:1003200000000000000000000000000000000013BA
:100330000650009ECADC240EE5A9E093F3A3B500A5
:1003400000406E00000000000000000000000000FF
:100350000F06600000000000000000000000000028
:10036000000000000000000000000000000000008D
:10037000000606F00003D388000000000000000023
:10038000000000000000000000000000000000006D
:1003900000416461667275697420426C75656672AD
:1003A000756974204C6F7720456E65726779206E91
:1003B000524638303031205072696E74206563685F
:1003C0006F2064656D6F000A2A2053656E64696E44
:1003D00067202D3E2022002A20446973636F6E6ED1
:1003E0006563746564206F722061647665727469F8
:1003F00073696E672074696D6564206F7574002A77
:1004000020436F6E6E656374656421002A20416429
:10041000766572746973696E67207374617274654E
:100420006400202050697065204572726F7220430D
:100430006F64653A20307800414349204576742046
:1004400050697065204572726F723A20506970650C
:1004500020233A0045767420436D642072657370E2
:100460006F6E653A204572726F722E20417264750C
:10047000696E6F20697320696E20616E20776869EC
:100480006C652831293B206C6F6F70004143492017
:10049000436F6D6D616E6420004572726F722069EA
:1004A0006E2041434920536574757000002C200074
:1004B000436D642051756575652046756C6C000050
:1004C0001A0F11241FBECFEFD8E0DEBFCDBF11E061
:1004D000A0E0B1E0EEEBF4E202C005900D92A03690
:1004E000B107D9F725E0A0E6B1E001C01D92A23D19
:1004F000B207E1F712E0C1E6D2E004C02197FE01A5
:100500000E94E90FC036D107C9F70E94E80B0C948E
:100510005D120C940000FC01918D828D981761F0A2
:10052000828DDF01A80FB11D5D968C91928D9F5F2A
:100530009F73928F90E008958FEF9FEF0895FC01D5
:10054000918D828D981731F0828DE80FF11D858D88
:1005500090E008958FEF9FEF0895FC01918D228D1B
:10056000892F90E0805C9F4F821B91098F739927A0
:10057000089584E794E00E94AD0221E0892B09F4FC
:1005800020E0822F0895FC01848DDF01A80FB11DAA
:10059000A35ABF4F2C91848D90E001968F739927B9
:1005A000848FA689B7892C93A089B1898C918064A6
:1005B0008C93938D848D981306C00288F389E02D67
:1005C00080818F7D80830895EF92FF920F931F9318
:1005D000CF93DF93EC0181E0888F9B8D8C8D9813F6
:1005E00005C0E889F989808185FD24C0F62E0B8D30
:1005F00010E00F5F1F4F0F731127E02E8C8DE81254
:100600000CC00FB607FCFACFE889F989808185FF15
:10061000F5CFCE010E94C302F1CF8B8DFE01E80F12
:10062000F11DE35AFF4FF0820B8FEA89FB8980812D
:10063000806207C0EE89FF896083E889F98980813B
:100640008064808381E090E0DF91CF911F910F91D2
:10065000FF90EF900895CF93DF93EC01888D88236E
:10066000C9F0EA89FB89808185FD05C0A889B9891F
:100670008C9186FD0FC00FB607FCF5CF808185FFFA
:10068000F2CFA889B9898C9185FFEDCFCE010E9468
:10069000C302E7CFDF91CF91089580E090E0892BEE
:1006A00029F00E94B90281110C9400000895833052
:1006B00081F028F4813099F08230A1F008958730DC
:1006C000A9F08830B9F08430D1F4809180008F7D1A
:1006D00003C0809180008F7780938000089584B557
:1006E0008F7702C084B58F7D84BD08958091B0005E
:1006F0008F7703C08091B0008F7D8093B000089504
:10070000CF93DF93282F30E0F901EA56FF4F849111
:10071000F901EC54FF4FD491F901E853FF4FC49114
:10072000CC2391F081110E945703EC2FF0E0EE0FE3
:10073000FF1FE457FF4FA591B491EC91ED2381E0A9
:1007400090E021F480E002C080E090E0DF91CF9162
:100750000895CF93DF9390E0FC01EC54FF4F249178
:10076000FC01E853FF4F8491882361F190E0880FEA
:10077000991FFC01E655FF4FC591D491FC01EE573E
:10078000FF4FA591B491611109C09FB7F89488817A
:10079000209582238883EC912E230BC0623061F474
:1007A0009FB7F8943881822F809583238883EC91BA
:1007B0002E2B2C939FBF06C08FB7F894E8812E2B69
:1007C00028838FBFDF91CF9108953FB7F894809130
:1007D000640190916501A0916601B091670126B511
:1007E000A89B05C02F3F19F00196A11DB11D3FBF69
:1007F000BA2FA92F982F8827820F911DA11DB11DF7
:10080000BC01CD0143E0660F771F881F991F4A95F1
:10081000D1F708952FB7F89460916001709161014C
:1008200080916201909163012FBF08950E94E611AB
:100830001F920F920FB60F9211242F933F934F9355
:100840005F936F937F938F939F93AF93BF93EF9338
:10085000FF9384E794E00E94C302FF91EF91BF9160
:10086000AF919F918F917F916F915F914F913F9148
:100870002F910F900FBE0F901F9018951F920F92FF
:100880000FB60F9211242F938F939F93EF93FF93A3
:10089000E0918404F09185048081E0918A04F091D4
:1008A0008B0482FD12C0908180918D048F5F8F73C5
:1008B00020918E04821751F0E0918D04F0E0EC5805
:1008C000FB4F958F80938D0401C08081FF91EF9144
:1008D0009F918F912F910F900FBE0F901F901895A1
:1008E0001F93CF93DF93282F30E0F901EA56FF4F93
:1008F0008491F901EC54FF4FD491F901E853FF4F73
:10090000C491CC23C9F0162F81110E945703EC2FFC
:10091000F0E0EE0FFF1FEE57FF4FA591B4918FB798
:10092000F894111105C09C91ED2FE095E92302C0C8
:10093000EC91ED2BEC938FBFDF91CF911F91089538
:100940008F929F92AF92BF92CF92DF92EF92FF92DF
:100950006B017C010E94E5034B015C01C114D104D1
:10096000E104F104F1F00E94E503DC01CB018819F8
:100970009909AA09BB09883E9340A105B10570F306
:1009800021E0C21AD108E108F10888EE880E83E060
:10099000981EA11CB11CC114D104E104F10419F783
:1009A000DDCFFF90EF90DF90CF90BF90AF909F9002
:1009B0008F900895089508952091590530915A0512
:1009C00080915B0590915C052817390749F0E0910B
:1009D0005B05F0915C05E154FD4F808190E0089546
:1009E0008FEF9FEF08952091590530915A0580911E
:1009F0005B0590915C0528173907E9F0E0915B05EC
:100A0000F0915C05E154FD4F808120915B053091B0
:100A10005C052F5F3F4F30935C0520935B05209171
:100A20005B0530915C052F73332730935C05209371
:100A30005B0590E008958FEF9FEF08958091590531
:100A400090915A0520915B0530915C05821B930BB8
:100A50008F73992708951F920F920FB60F9211244A
:100A60002F933F938F939F93AF93BF938091600198
:100A700090916101A0916201B091630130912303D3
:100A800026E0230F2D3720F40296A11DB11D05C0CD
:100A900029E8230F0396A11DB11D20932303809302
:100AA000600190936101A0936201B0936301809112
:100AB000640190916501A0916601B0916701019672
:100AC000A11DB11D8093640190936501A0936601FF
:100AD000B0936701BF91AF919F918F913F912F91FB
:100AE0000F900FBE0F901F9018951F920F920FB688
:100AF0000F9211242F933F934F935F936F937F93A4
:100B00008F939F93AF93BF93EF93FF93E0910F0168
:100B1000F09110010995FF91EF91BF91AF919F91D5
:100B20008F917F916F915F914F913F912F910F9096
:100B30000FBE0F901F9018951F920F920FB60F9235
:100B400011242F933F934F935F936F937F938F93D2
:100B50009F93AF93BF93EF93FF93E0910D01F091BB
:100B60000E010995FF91EF91BF91AF919F918F91E8
:100B70007F916F915F914F913F912F910F900FBE99
:100B80000F901F90189520915E05022E000C330BDC
:100B90002330310529F022303105C1F430E001C0A5
:100BA00031E02DB3882341F081E090E001C0880F4F
:100BB0003A95EAF7822B08C081E090E001C0880FE7
:100BC0003A95EAF7809582238DBB0895FFCF0F9366
:100BD0001F93CF93DF93CDB7DEB7A1970FB6F894ED
:100BE000DEBF0FBECDBF83B78E7F83BFE0916A01AA
:100BF000E23070F4E13011F0E89801C0E998F0E0DB
:100C0000EE0FFF1FE35FFE4F8AED94E09183808338
:100C100080916901882399F02FB7F8948091690138
:100C2000813059F48DB3809322039DB38091680184
:100C3000809589238DBB2FBF02C02093220380E7BC
:100C40008CBD1DBC60E080915F050E9470048091A6
:100C5000730290917402891709F4ACC090E021E20C
:100C6000289FF001299FF00D1124E559FE4FDE0168
:100C7000119601900D922A95E1F7019687709927B8
:100C8000809373028A818EBD00000DB407FEFDCFF4
:100C90008EB5809375028B818EBD00000DB407FE6A
:100CA000FDCF8EB5809376029A81992349F0292F42
:100CB00030E0482F50E04217530714F48FEF890FAC
:100CC000803208F08FE1A7E7B2E09E012C5F3F4F32
:100CD000F9019E2F921B981748F491919EBD000038
:100CE0000DB407FEFDCF9EB59D93F3CF61E08091DB
:100CF0005F050E94700480916901882361F09FB7AD
:100D0000F8942091690180912203213019F48DBB60
:100D10009FBF01C08FBF83B7816083BF80916A018D
:100D20000E9493099091730280917402981729F0A0
:100D300060E080915F050E94700440917602442338
:100D4000D9F120912E0430E089010F5F1F4F077009
:100D5000112780912D04801761F151E2529FC0014B
:100D6000539F900D1124FC01EB5DFC4F108250E06D
:100D70004F5F5F4F66E772E08A5D9C4F0E94EB1108
:100D800000932E04F89480912E048F5F87709091C9
:100D90002D047894891310C080E0A1960FB6F894C2
:100DA000DEBF0FBECDBFDF91CF911F910F910C948D
:100DB000C305FFCF1A8266CFA1960FB6F894DEBFA7
:100DC0000FBECDBFDF91CF911F910F9108950F936B
:100DD0001F93CF93DF938C01FC01D1814D2F50E005
:100DE00060E070E02AE084E794E00E94370B67E55A
:100DF00071E084E794E00E949D0AC0E0F801EC0FE6
:100E0000F11D418150E060E070E020E184E794E072
:100E10000E94370B6DEA74E084E794E00E94790A3F
:100E2000CF5FDC1758F76CEA74E084E794E0DF9159
:100E3000CF911F910F910C94800B0F931F93CF9321
:100E4000DF93FC0141814032C8F58C01209174028E
:100E500030E0E9012196C770DD27809173028C177D
:100E6000C1F051E2529FC001539F900D1124FC012B
:100E7000E559FE4F108250E04F5F5F4FB8016F5F42
:100E80007F4F84599E4F0E94EB11C0937402C1E0C2
:100E900001C0C0E080912403882349F06AE571E035
:100EA00084E794E00E949D0AC8010E94E70660E082
:100EB00080915F050E9470048C2F01C080E0DF915B
:100EC000CF911F910F910895E1E5F4E025E0218392
:100ED0002FE022839483838376836583CF010C94F0
:100EE0001D070F931F93CF93DF93EC0180E093E0F6
:100EF0000E94B20A882309F445C1E09102038E2FB3
:100F000090E0FC01E158F109ED30F10508F03AC13B
:100F1000EC5CFF4F0C94E90F80910503809336043D
:100F200080910303823019F08330B9F12BC1809195
:100F30003404893010F460E01BC000E010E028E8C1
:100F400030E090913404892F869586958695181700
:100F500040F4602F88E00E94940B9C011F5F085FA3
:100F6000F0CF892F877039F0612F660F660F660FFB
:100F70000E94940B9C012230310509F403C1888939
:100F8000882309F4FFC069E974E084E794E0DF9105
:100F9000CF911F910F910C94800B8D89882309F4B8
:100FA00063C0BE016B5E7F4FFB0101900020E9F73B
:100FB0003197AF01461B570B81E00E94950F54C03B
:100FC00080910403882301F188898823E1F06CE88B
:100FD00074E084E794E00E94790A4091030350E0B2
:100FE00060E070E020E184E794E00E94370B66E463
:100FF00071E084E794E00E949D0A64E574E084E770
:1010000094E00E94800BFFCF80910303893009F0A8
:10101000B9C049E065E073E084E0DF91CF911F91B2
:101020000F910C94950F809136048093390481E0E0
:101030008093520489E08093530481E594E00E94F8
:101040001D0785E88D8FEC85FD85309709F00995A2
:101050008091400483FF96C085C086E88D8FEC8523
:10106000FD85309709F009956B897C8989899A8972
:101070000E94640781E88D8FEC85FD85309709F427
:1010800081C0DF91CF911F910F910994609101036D
:10109000625020E030E0462F50E0241735070CF571
:1010A0008091590590915A0501968F739927E09187
:1010B0005B05F0915C058E179F0781F0E091590563
:1010C000F0915A05E154FD4FD901A050BD4F14963F
:1010D0007C91708390935A05809359052F5F3F4F01
:1010E000DCCFEE85FF85309709F44CC084E093E0B7
:1010F000DF91CF911F910F910994909103038091FB
:101100003904890F2CC08889882331F168E374E0A1
:1011100084E794E00E94790A4091030350E060E084
:1011200070E02AE084E794E00E94370B62E274E00A
:1011300084E794E00E94790A4091040350E060E063
:1011400070E020E184E794E00E94370B66E471E0F0
:1011500084E794E00E949D0A809139048F5F809318
:10116000390410C08091FF0281110CC0C1E0C0930E
:10117000520483E18093530481E594E00E941D07AB
:10118000C093FF02DF91CF911F910F9108950F93AC
:101190001F93CF93DF931F92CDB7DEB78C01698386
:1011A0008091390481110AC0C8010E9471076AE068
:1011B00070E080E090E00E94A004F2CF80914004B3
:1011C00083FF13C061E0CE0101960E94AF098091B8
:1011D000390481508093390463E270E080E090E04C
:1011E0000E94A00481E090E005C0C8010E94710740
:1011F00080E090E00F90DF91CF911F910F910895C3
:10120000CF92DF92EF92FF920F931F93CF93DF93D2
:101210006C017A018B01C0E0D0E0CE15DF0589F0CA
:10122000D8016D918D01D601ED91FC910190F08175
:10123000E02DC6010995892B11F47E0102C021968B
:10124000ECCFC701DF91CF911F910F91FF90EF90ED
:10125000DF90CF900895EF92FF920F931F93CF935B
:10126000DF93EC017B018A0188819981009729F045
:101270002A813B8124173507F8F4B8016F5F7F4F4F
:101280000E941C11009759F0998388831B830A835D
:101290002C813D81232B81F4FC0110820DC08881BB
:1012A0009981009711F00E948410198218821D8282
:1012B0001C821B821A8207C01D830C83B7018881A0
:1012C00099810E94F411CE01DF91CF911F910F916E
:1012D000FF90EF900895E4E7F4E0A089B18982E0FF
:1012E0008C93A485B5851C92A685B78587E68C93DB
:1012F000108EA489B58986E08C93A289B3898C91DC
:1013000080618C93A289B3898C9188608C93A28927
:10131000B3898C9180688C930288F389E02D808159
:101320008F7D808308958230C8F4E82FF0E0EE0FBF
:10133000FF1FE35FFE4F27EE35E0318320838130CE
:1013400039F0809169008C7F80936900E89A089554
:1013500080916900837F80936900E99A0895EF92F4
:10136000FF921F93CF93DF93CDB7DEB765970FB68C
:10137000F894DEBF0FBECDBFE0917204F09173040C
:10138000278130852230310519F02430310569F587
:10139000653158F5162FBC01E12EF12CA701CE01C5
:1013A00002960E94EB111E5F1093520485E1809318
:1013B000530483E080935404A701BE016E5F7F4F06
:1013C00085E594E00E94EB111092CD0581E594E053
:1013D00065960FB6F894DEBF0FBECDBFDF91CF91FB
:1013E0001F91FF90EF900C941D0780E065960FB65B
:1013F000F894DEBF0FBECDBFDF91CF911F91FF905C
:10140000EF900895CF93DF93CDB7DEB764970FB613
:10141000F894DEBF0FBECDBFCE01019664960FB625
:10142000F894DEBF0FBECDBFDF91CF910895CF936B
:10143000DF93EC01FB0186179707B1F060817181A2
:101440006115710529F0448155810E942B090CC05A
:1014500088819981009711F00E9484101982188266
:101460001D821C821B821A82CE01DF91CF910895CA
:10147000FC0111821082138212821582148261157E
:10148000710551F0FB0101900020E9F73197AF01A0
:10149000461B570B0C942B0908950F931F93CF9362
:1014A000DF938C018AE090E00E94EF0FEC0168E48A
:1014B00071E00E94380AB801CE010E94170AE0913B
:1014C0006005F0916105FF83EE83198618863097D9
:1014D00019F0D187C08704C0D0936305C09362051B
:1014E000D0936105C0936005DF91CF911F910F915B
:1014F0000895EF92FF920F931F93CF93DF938C0188
:101500007B01C0E0D0E0F701EC0FFD1F6491662382
:1015100061F0D801ED91FC910190F081E02DC801BE
:101520000995892B11F02196EECFCE01DF91CF9155
:101530001F910F91FF90EF9008956115710579F05B
:10154000FB0101900020E9F73197AF01461B570BD3
:10155000DC01ED91FC910280F381E02D099480E0A3
:1015600090E008950F931F93CF93DF93EC01F894CD
:1015700010912E0400912D047894E0912D04809117
:101580002E04E81759F181E28E9FF0011124EB5DE2
:10159000FC4FDE0101900D928A95E1F780912D04B8
:1015A00090E001968770992780932D048091240301
:1015B000882349F06CE571E084E794E00E949D0A7D
:1015C000CE010E94E706812F90E00196877099274F
:1015D000081306C081E00E94C30502C080E001C07C
:1015E00081E09A819838A9F0993851F19638D1F56F
:1015F000E8E4F4E098E09E0FDF0118971C92119246
:101600009E13FACF109250049091360490933904AF
:1016100029C0FE013B96A8E4B4E0AE014D5E5F4FE9
:101620009F0128503109E90198819D012850310915
:10163000E901988391919D93E417F50789F712C00A
:101640002B813C8130933B0420933A042D813E81D1
:1016500030933D0420933C042F81388530933F0420
:1016600020933E04DF91CF911F910F9108954F92E7
:101670005F926F927F92EF92FF920F931F93CF939F
:10168000DF93CDB7DEB7A1970FB6F894DEBF0FBEDC
:10169000CDBF7C01FA01CB0119A2223008F42AE067
:1016A0008E010F5D1F4F422E512C612C712CBF01FA
:1016B000A30192010E940412F901CA01015011090B
:1016C0006A3014F4605D01C0695CD8016C93232B0F
:1016D000242B252B61F7B801C7010E949D0AA19612
:1016E0000FB6F894DEBF0FBECDBFDF91CF911F9133
:1016F0000F91FF90EF907F906F905F904F900895C3
:101700000F931F93CF93DF93EC010E94790A8C0112
:1017100066E471E0CE010E949D0A800F911FDF9167
:10172000CF911F910F910895EF92FF920F931F9306
:10173000CF93DF93F82E81E2689FE001112400E04F
:1017400010E0E12CEF1421F198012C0F3D1F609166
:10175000320470913304620F731FFB013196449180
:1017600050E04E5F5F4F8CEA95E00E94FB118CEADF
:1017700095E00E941D070F5D1F4F811107C060EBB0
:1017800074E084E794E00E94800B19C0E394DACF00
:10179000C0E08AE895E00E94B20A8823D1F3CF5FC7
:1017A00080918C05843859F490918E058FEF890FC4
:1017B000823010F4FC12EDCF892F90E002C081E856
:1017C00090E0DF91CF911F910F91FF90EF900895DE
:1017D000CF93DF93CDB7DEB72C970FB6F894DEBF6B
:1017E0000FBECDBF789484B5826084BD84B581601E
:1017F00084BD85B5826085BD85B5816085BD8091DC
:101800006E00816080936E00109281008091810053
:10181000826080938100809181008160809381004B
:10182000809180008160809380008091B10084600D
:101830008093B1008091B00081608093B00080916E
:101840007A00846080937A0080917A00826080932D
:101850007A0080917A008E7F80937A0080917A005E
:10186000806880937A001092C10010925505109202
:1018700056051092570510925805109213051092B4
:101880001405109215051092160560ED77E080E0C2
:1018900090E00E94A00484E794E090935405809324
:1018A00053050E946B090E940A046093130570930C
:1018B0001405809315059093160567E371E08091F8
:1018C0005305909154050E949D0A6AE070E080E003
:1018D00090E00E94A00481E0809327050E946B099C
:1018E00061E973E084E794E00E94800B60E083E0AC
:1018F0000E94A90360E084E00E94A90388E0EFE46D
:10190000F1E0AEE7B5E001900D928A95E1F7109213
:101910007B0510927A0580E590E090937D05809399
:101920007C0580E091E09093300480932F0484E064
:10193000809331048CED90E09093330480933204D3
:1019400085E180933404A8E4B4E04BEA52E088E0F7
:10195000840F9D0128503109F90110821D92FA016E
:101960001192AF018E13F5CF1092AA021092A90224
:101970001092A8021092A7028FEF8093A602809384
:10198000A5028093A4021092A3021092A2021092C8
:10199000A1021092A00210929F0210929E02109239
:1019A0009D0210929C0210929B0280912F049091B4
:1019B0003004909373048093720484E080939A02BD
:1019C0008CED90E0909399028093980285E180934A
:1019D0009702109276021FB7F894809196028111B7
:1019E00027C0E2EDF0E08491EEEBF0E09491E82F77
:1019F000F0E0EE0FFF1FE655FF4FA591B491EC917B
:101A0000E92321F461E08AE00E94700461E08AE049
:101A10000E94A9038CB580618CBD8CB580648CBD9F
:101A200061E08DE00E94A90361E08BE00E94A903C0
:101A3000809196028F5F809396021FBF10922403BD
:101A4000109273021092740280E090E0FC01E5595C
:101A5000FE4F1182128281968830F1E09F07B1F724
:101A600010922D0410922E0480E090E0FC01E559C4
:101A7000FE4F118212828196883021E09207B1F7E1
:101A800061E080915D050E94A90362E080915E059E
:101A90000E94A90361E080915F050E94A90361E0B3
:101AA00080915D050E94700464E670E080E090E043
:101AB0000E94A00460E080915D050E94700461E0D6
:101AC00080915D050E94700460E08DE00E947004CA
:101AD00060E08BE00E94700461E080915F050E94ED
:101AE000700460E08DE00E9470048FEF80936A01C3
:101AF00080915E05082E000C990B8230910519F437
:101B000010926A0105C0039719F481E080936A017D
:101B10006EE170E080E090E00E94A00480916A0194
:101B20009FB7F894882349F0813011F482E006C011
:101B300082E08093690180E001C081E0209168012A
:101B4000822B8093680180916901811103C081E03B
:101B5000809369019FBF80916A010E94930989E681
:101B600095E00E9471071091860580910C0118176D
:101B7000A1F0113819F46CE074E009C0153819F4BB
:101B80006FEF73E004C0163831F467ED73E084E75B
:101B900094E00E94800B10930C01153809F0A4C04A
:101BA00000916205109163050115110539F468E48F
:101BB00071E0CE0107960E94380A31C0D80118960C
:101BC000ED91FC911997F0936305E09362053097CE
:101BD00029F4109261051092600502C017821682E6
:101BE0001A8219821C821B821E821D82B801CE01BC
:101BF00001960E94170AF801808191810E94841049
:101C0000C8010E94841089819A8198878F838B8173
:101C10009C819A8789878D819E819C878B878B8504
:101C20009C85892B29F48F8198850E9484105CC043
:101C3000EF81F88580818823B1F31A8219821C8292
:101C40001B821E821D82BE01695F7F4FCE010196FD
:101C50000E94170ACE0101960E94020A7C01898126
:101C60009A810E94841000E010E0F701E00FF11F5C
:101C70000F5F1F4F81918A3009F4C1C006311105F1
:101C8000BCF367EC73E084E794E00E94790AB70143
:101C900084E794E00E949D0A69E471E084E794E09F
:101CA0000E949D0A66E471E084E794E00E949D0A28
:101CB0008091390481110BC089E695E00E9471077B
:101CC0006AE070E080E090E00E94A004F1CF10E0B4
:101CD000002309F4A8CF8091400483FD95C089E6D4
:101CE00095E00E947107F4CF83E00E94800311E029
:101CF000892B09F410E08091BE02181751F00E9460
:101D00000A046093BA027093BB028093BC02909362
:101D1000BD020E940A048090BA029090BB02A0907B
:101D2000BC02B090BD02DC01CB0188199909AA0957
:101D3000BB09C397A105B105B0F08091B90218178E
:101D400091F01093B902112371F06BE471E0CE01B0
:101D500001960E94380ACE0101960E944D0A89819F
:101D60009A810E9484101093BE0283E00E94800337
:101D700011E0892B09F410E0E12EF12C8091B802DA
:101D800090E0E816F90651F00E940A046093B4024C
:101D90007093B5028093B6029093B7020E940A0432
:101DA0008090B4029090B502A090B602B090B702B5
:101DB000DC01CB0188199909AA09BB09C397A105C0
:101DC000B105C0F08091B30290E0E816F90691F0F9
:101DD0001093B302112371F06DE471E0CE0101960E
:101DE0000E94380ACE0101960E944D0A89819A818B
:101DF0000E9484101093B8020E944D03B0CE0631A9
:101E000011050CF410CF3DCF64E1C701810F911D86
:101E10000E94AF099091390491509093390463E284
:101E200070E080E090E00E94A004045109F4FBCE31
:101E30001C5E4ECFCF93DF93E4E7F4E0138212826F
:101E400088EE93E0A0E0B0E084839583A683B78317
:101E50002BE131E03183208325EC30E03587248786
:101E600024EC30E03787268720EC30E0318B208B64
:101E700021EC30E0338B228B22EC30E0358B248B4D
:101E800026EC30E0378B268B118E128E138E148E3B
:101E9000E1E1F5E01682178210861186128613861C
:101EA0001486158616861786108A118A128A138A56
:101EB000148A158AE9E6F5E01382128284839583F9
:101EC000A683B7838BE291E09183808381E0808B4E
:101ED0008AE080935F0582E080935E0589E08093CD
:101EE0005D05178616861586148688E0AEE7B5E090
:101EF000ED0119928A95E9F710925C0510925B0545
:101F000010925A051092590586E8858FE5E6F5E0AE
:101F10001182108213821282E0E6F5E011821082B3
:101F200013821282DF91CF910895EF92FF920F9367
:101F30001F93CF93DF93CDB7DEB765970FB6F894B5
:101F4000DEBF0FBECDBFE0917204F091730493E049
:101F5000899FE00DF11D112433979081913059F53F
:101F6000453148F5142F082FE42EF12CA701CE019E
:101F700002960E94EB111E5F109352048DE0809335
:101F8000530400935404A701BE016E5F7F4F85E5A3
:101F900094E00E94EB1181E594E065960FB6F89409
:101FA000DEBF0FBECDBFDF91CF911F910F91FF908C
:101FB000EF900C941D0780E065960FB6F894DEBF95
:101FC0000FBECDBFDF91CF911F910F91FF90EF908A
:101FD0000895EE0FFF1F0590F491E02D0994CF9323
:101FE000DF938230910510F482E090E0E091D0051B
:101FF000F091D10520E030E0C0E0D0E0309711F161
:102000004081518148175907C0F04817590761F4BA
:1020100082819381209719F09B838A832BC09093B0
:10202000D1058093D00526C02115310519F042173E
:10203000530718F49A01BE01DF01EF010280F3811A
:10204000E02DDCCF2115310509F1281B390B243097
:10205000310590F412968D919C911397611571053D
:1020600021F0FB019383828304C09093D105809378
:10207000D005FD01329644C0FD01E20FF31F8193AC
:102080009193225031092D933C933AC02091CE0573
:102090003091CF05232B41F420911301309114018D
:1020A0003093CF052093CE0520911101309112017C
:1020B0002115310541F42DB73EB7409115015091DE
:1020C0001601241B350BE091CE05F091CF05E217E8
:1020D000F307A0F42E1B3F0B2817390778F0AC014B
:1020E0004E5F5F4F2417350748F04E0F5F1F509328
:1020F000CF054093CE058193919302C0E0E0F0E0DC
:10210000CF01DF91CF9108950F931F93CF93DF936A
:10211000009709F48CC0FC0132971382128200915F
:10212000D0051091D1050115110581F4208131816F
:10213000820F931F2091CE053091CF0528173907C4
:1021400079F5F093CF05E093CE0571C0D80140E05A
:1021500050E0AE17BF0750F412962D913C911397A3
:10216000AD012115310509F1D901F3CF9D01DA0146
:102170003383228360817181860F971F82179307B3
:1021800069F4EC0128813981260F371F2E5F3F4FFC
:10219000318320838A819B8193838283452B29F419
:1021A000F093D105E093D00542C01396FC93EE93D3
:1021B0001297ED01499159919E01240F351FE217A5
:1021C000F30771F480819181840F951F0296119617
:1021D0009C938E938281938113969C938E931297F6
:1021E000E0E0F0E0D80112968D919C911397009752
:1021F00019F0F8018C01F6CF8D919C9198012E5F1A
:102200003F4F820F931F2091CE053091CF052817A5
:10221000390769F4309729F41092D1051092D0054E
:1022200002C0138212821093CF050093CE05DF9176
:10223000CF911F910F910895A0E0B0E0E2E2F1E1AB
:102240000C942A12EC01009721F4CB010E94EF0FAD
:10225000B8C0FC01E60FF71F9C0122503109E217BC
:10226000F30708F4ACC0D9010D911C911197061722
:102270001707B0F00530110508F49FC0C801049796
:102280008617970708F499C002501109061B170B0F
:10229000019311936D937C93CF010E9484108DC0A4
:1022A0005B01A01AB10A4C01800E911EA091D005CD
:1022B000B091D10540E050E0E12CF12C109709F4E9
:1022C0004AC0A815B905D1F56D907C9011976301AE
:1022D00082E0C80ED11CCA14DB0480F1A3014A19A4
:1022E0005B096A0182E0C80ED11C1296BC9012975D
:1022F0001396AC91B5E0CB16D10440F0B282A38323
:1023000051834083D9016D937C930AC00E5F1F4FA8
:10231000C301800F911FF90191838083EB2DFA2F68
:10232000E114F10431F0D7011396FC93EE93129768
:1023300044C0F093D105E093D0053FC08D919C91AE
:1023400011974817590708F4AC017D0112960D90BA
:10235000BC91A02DB3CF8091CE059091CF0588156B
:102360009905E1F446175707C8F48091110190913F
:102370001201009741F48DB79EB74091150150911D
:102380001601841B950BE817F907C8F4F093CF05E5
:10239000E093CE05F901718360830FC0CB010E94E9
:1023A000EF0F7C01009759F0A801BE010E94EB11CC
:1023B000CE010E948410C70104C0CE0102C080E09B
:1023C00090E0CDB7DEB7EEE00C94461281E090E0ED
:1023D000F8940C945D12FB01DC0102C001900D9297
:1023E00041505040D8F70895FB01DC0101900D9257
:1023F0000020E1F70895FB01DC0102C005900D9279
:1024000041505040D8F70895A1E21A2EAA1BBB1BD9
:10241000FD010DC0AA1FBB1FEE1FFF1FA217B307B0
:10242000E407F50720F0A21BB30BE40BF50B661FC6
:10243000771F881F991F1A9469F76095709580958A
:1024400090959B01AC01BD01CF0108952F923F9261
:102450004F925F926F927F928F929F92AF92BF92B4
:10246000CF92DF92EF92FF920F931F93CF93DF9360
:10247000CDB7DEB7CA1BDB0B0FB6F894DEBF0FBEBD
:10248000CDBF09942A88398848885F846E847D840A
:102490008C849B84AA84B984C884DF80EE80FD800C
:1024A0000C811B81AA81B981CE0FD11D0FB6F89482
:0E24B000DEBF0FBECDBFED010895F894FFCF43
:1024BE0001800001080001020001800086DA04DAC2
:1024CE00040000D205800000000000E4020009AD07
:1024DE00028B029F022B0300000000C70800091E9A
:1024EE0005F304DC04DB04564D4450565F317C3159
:1024FE005F564D4450560D0A0022004C00520043C8
:10250E004F4D4D414E4400203A00430020450000FF
:107800000C94343C0C94513C0C94513C0C94513CE1
:107810000C94513C0C94513C0C94513C0C94513CB4
:107820000C94513C0C94513C0C94513C0C94513CA4
:107830000C94513C0C94513C0C94513C0C94513C94
:107840000C94513C0C94513C0C94513C0C94513C84
:107850000C94513C0C94513C0C94513C0C94513C74
:107860000C94513C0C94513C11241FBECFEFD8E036
:10787000DEBFCDBF11E0A0E0B1E0EAE8FFE702C063
:1078800005900D92A230B107D9F712E0A2E0B1E065
:1078900001C01D92AD30B107E1F70E942D3D0C945F
:1078A000C33F0C94003C982F95959595959595958B
:1078B000905D8F708A307CF0282F295A8091C0000B
:1078C00085FFFCCF9093C6008091C00085FFFCCF60
:1078D0002093C6000895282F205DF0CF982F809127
:1078E000C00085FFFCCF9093C6000895EF92FF92F1
:1078F0000F931F93EE24FF2487018091C00087FD22
:1079000017C00894E11CF11C011D111D81E2E8164D
:1079100081EAF80687E0080780E0180770F3E09135
:107920000401F091050109958091C00087FFE9CF1E
:107930008091C6001F910F91FF90EF9008950E94D3
:10794000763C982F8091C00085FFFCCF9093C600B5
:1079500091362CF490330CF09053892F089597555D
:10796000892F08951F930E949F3C182F0E949F3CCF
:107970001295107F810F1F9108951F93182F882350
:1079800021F00E94763C1150E1F71F9108951F935A
:10799000182F0E94763C803249F0809103018F5F5E
:1079A000809303018530C1F01F9108958091C0003C
:1079B00085FFFCCF84E18093C6008091C00085FFE5
:1079C000FCCF1093C6008091C00085FFFCCF80E102
:1079D0008093C6001F910895E0910401F091050184
:1079E00009951F9108950E94763C803241F0809164
:1079F00003018F5F80930301853081F008958091AA
:107A0000C00085FFFCCF84E18093C6008091C00058
:107A100085FFFCCF80E18093C6000895E0910401CA
:107A2000F09105010995089548EC50E08823A1F0F4
:107A30002D9A28EE33E0FA013197F1F721503040CA
:107A4000D1F72D9828EE33E0FA013197F1F7215064
:107A50003040D1F7815061F708953F924F925F9285
:107A60006F927F928F929F92AF92BF92CF92DF924E
:107A7000EF92FF920F931F93CF93DF93000082E06A
:107A80008093C00080E18093C4001092C50088E11B
:107A90008093C10086E08093C2005098589A259A3E
:107AA00081E00E94143D24E1F22E9EE1E92E85E959
:107AB000D82E0FE0C02E10E1B12EAA24A394B1E479
:107AC0009B2EA6E58A2EF2E57F2EE0E26E2E79E46B
:107AD000572E63E5462E50E5352E0E94763C8033C6
:107AE000B1F18133B9F1803409F46FC0813409F404
:107AF00076C0823409F485C0853409F488C08035A5
:107B000031F1823521F1813511F1853509F485C0D6
:107B1000863509F48DC0843609F496C0843709F49B
:107B200003C1853709F472C1863709F466C08091B4
:107B300003018F5F80930301853079F6E0910401A2
:107B4000F091050109950E94763C803351F60E9420
:107B5000F33CC3CF0E94763C803249F78091C0004D
:107B600085FFFCCFF092C6008091C00085FFFCCF5E
:107B70009092C6008091C00085FFFCCF8092C60025
:107B80008091C00085FFFCCF7092C6008091C0003C
:107B900085FFFCCF6092C6008091C00085FFFCCFBE
:107BA0005092C6008091C00085FFFCCF4092C60075
:107BB0008091C00085FFFCCF3092C6008091C0004C
:107BC00085FFFCCFB092C60088CF0E94763C8638F5
:107BD00008F4BDCF0E94763C0E94F33C7ECF0E9409
:107BE000763C803809F49CC0813809F40BC1823896
:107BF00009F430C1883909F48FC080E00E94C73C85
:107C00006CCF84E10E94BD3C0E94F33C66CF85E0CE
:107C10000E94BD3C0E94F33C60CF0E94763C809362
:107C200006010E94763C809307010E94F33C55CFE9
:107C30000E94763C803309F411C183E00E94BD3C70
:107C400080E00E94C73C49CF0E94763C80930902A5
:107C50000E94763C8093080280910C028E7F809374
:107C60000C020E94763C853409F409C18091080217
:107C700090910902892B89F000E010E00E94763C87
:107C8000F801E85FFE4F80830F5F1F4F809108026D
:107C9000909109020817190788F30E94763C8032F8
:107CA00009F045CF80910C0280FFF5C0609106017C
:107CB00070910701660F771F7093070160930601AB
:107CC000A0910802B09109021097C9F0E8E0F1E034
:107CD0009B01AD014E0F5F1FF999FECF32BD21BD53
:107CE000819180BDFA9AF99A2F5F3F4FE417F5070B
:107CF00099F76A0F7B1F70930701609306018091CB
:107D0000C00085FFFCCFF092C6008091C00085FFC7
:107D1000FCCFB092C600E1CE83E00E94C73CDDCE2E
:107D200082E00E94C73CD9CE0E94763C8093090233
:107D30000E94763C80930802809106019091070191
:107D4000880F991F90930701809306010E94763C4B
:107D5000853409F49AC080910C028E7F80930C02C6
:107D60000E94763C803209F0B8CE8091C00085FF39
:107D7000FCCFF092C600A0910802B09109021097C2
:107D8000C1F180910C02082F0170182F1695117007
:107D9000E0910601F0910701AF014F5F5F4FBA011B
:107DA00020E030E00023B1F4112339F49491809164
:107DB000C00085FFFCCF9093C6002F5F3F4FCB01E3
:107DC0000196FA012A173B0780F4BC014F5F5F4F11
:107DD000002351F3F999FECFF2BDE1BDF89A90B5B9
:107DE0008091C00085FFFCCFE6CF709307016093C0
:107DF00006018091C00085FDE5CE8091C00085FF21
:107E0000F8CFE0CE81E00E94C73C67CE0E94763C6E
:107E1000803209F08CCE8091C00085FFFCCFF092BB
:107E2000C6008091C00085FFFCCFE092C600809123
:107E3000C00085FFFCCFD092C6008091C00085FFB6
:107E4000FCCFC092C6008091C00085FFFCCFB092ED
:107E5000C60043CE80E10E94C73C3FCE0E94763CE4
:107E60000E94763C182F0E94763C112309F483C0AF
:107E7000113009F484C08FE00E94C73C2ECE80915F
:107E80000C02816080930C02F1CE80910C02816023
:107E900080930C0265CF809107018823880F880B9F
:107EA0008A2180930B028091060190910701880F2F
:107EB000991F90930701809306018091080280FF2B
:107EC00009C08091080290910902019690930902DD
:107ED00080930802F894F999FECF1127E0910601EA
:107EE000F0910701C8E0D1E0809108029091090269
:107EF000103091F40091570001700130D9F303E084
:107F000000935700E8950091570001700130D9F3B4
:107F100001E100935700E8950990199000915700EE
:107F200001700130D9F301E000935700E8951395F3
:107F3000103498F011270091570001700130D9F3E7
:107F400005E000935700E89500915700017001305B
:107F5000D9F301E100935700E8953296029709F0B2
:107F6000C7CF103011F00296E5CF11248091C000E8
:107F700085FFC5CEC8CE8EE10E94C73CAECD85E957
:0A7F80000E94C73CAACDF894FFCF81
:027F8A00800075
:040000030000780081
:00000001FF