:100000000C945D000C9485000C9485000C94850084
:100010000C9485000C9485000C9485000C9485004C
:100020000C9485000C9485000C9485000C9485003C
:100030000C9485000C9485000C9485000C9485002C
:100040000C9411030C9485000C94DF020C94B902FB
:100050000C9485000C9485000C9485000C9485000C
:100060000C9485000C9485000000000024002700FB
:100070002A0000000000250028002B0004040404CE
:100080000404040402020202020203030303030342
:10009000010204081020408001020408102001021F
:1000A00004081020000000080002010000030407FB
:1000B0000000000000000000270511241FBECFEF44
:1000C000D8E0DEBFCDBF11E0A0E0B1E0E6E0FBE0AC
:1000D00002C005900D92A235B107D9F722E0A2E542
:1000E000B1E001C01D92A733B207E1F710E0CDE502
:1000F000D0E004C02197FE010E945405CC35D10701
:10010000C9F70E945B030C9481050C940000EAE996
:10011000F1E0A089B18982E08C93A485B5851C9219
:10012000A685B78587E68C93108EA489B58986E06D
:100130008C93A289B3898C9180618C93A289B389B5
:100140008C9188608C93A289B3898C9180688C9300
:100150000288F389E02D80818F7D80830895E1EB13
:10016000F0E02491EDE9F0E09491E9E8F0E0E49129
:10017000EE2309F43BC0222339F1233091F038F407
:100180002130A9F0223001F524B52F7D12C027308F
:1001900091F02830A1F02430B9F4209180002F7D17
:1001A00003C0209180002F77209380000DC024B5DC
:1001B0002F7724BD09C02091B0002F7703C0209174
:1001C000B0002F7D2093B000F0E0EE0FFF1FEE583F
:1001D000FF4FA591B4912FB7F894EC91811103C012
:1001E00090959E2301C09E2B9C932FBF0895CF9284
:1001F000DF92EF92FF920F931F93CF93DF936C01E7
:100200007A018B01C0E0D0E0CE15DF0589F0D8017E
:100210006D918D01D601ED91FC910190F081E02D61
:10022000C6010995892B11F47E0102C02196ECCFFD
:10023000C701DF91CF911F910F91FF90EF90DF9059
:10024000CF900895FC01918D828D981761F0828D79
:10025000DF01A80FB11D5D968C91928D9F5F9F73FA
:10026000928F90E008958FEF9FEF0895FC01918D9C
:10027000828D981731F0828DE80FF11D858D90E009
:1002800008958FEF9FEF0895FC01918D228D892FA6
:1002900090E0805C9F4F821B91098F73992708958E
:1002A0008AE991E00E94440121E0892B09F420E0D1
:1002B000822F0895FC01848DDF01A80FB11DA35A80
:1002C000BF4F2C91848D90E001968F739927848F76
:1002D000A689B7892C93A089B1898C9180648C936D
:1002E000938D848D981306C00288F389E02D808158
:1002F0008F7D80830895EF92FF920F931F93CF938A
:10030000DF93EC0181E0888F9B8D8C8D981305C065
:10031000E889F989808185FD24C0F62E0B8D10E0D7
:100320000F5F1F4F0F731127E02E8C8DE8120CC04A
:100330000FB607FCFACFE889F989808185FFF5CFF0
:10034000CE010E945A01F1CF8B8DFE01E80FF11D05
:10035000E35AFF4FF0820B8FEA89FB89808180622C
:1003600007C0EE89FF896083E889F989808180640C
:10037000808381E090E0DF91CF911F910F91FF90FA
:10038000EF900895CF93DF93EC01888D8823C9F017
:10039000EA89FB89808185FD05C0A889B9898C918E
:1003A00086FD0FC00FB607FCF5CF808185FFF2CF29
:1003B000A889B9898C9185FFEDCFCE010E945A01A1
:1003C000E7CFDF91CF91089580E090E0892B29F06D
:1003D0000E94500181110C94000008953FB7F894D9
:1003E0008091570190915801A0915901B0915A0103
:1003F00026B5A89B05C02F3F19F00196A11DB11D80
:100400003FBFBA2FA92F982F8827820F911DA11DBA
:10041000B11DBC01CD0143E0660F771F881F991FF6
:100420004A95D1F708958F929F92AF92BF92CF9243
:10043000DF92EF92FF926B017C010E94EE014B0173
:100440005C01C114D104E104F104F1F00E94EE0159
:10045000DC01CB0188199909AA09BB09883E9340A0
:10046000A105B10570F321E0C21AD108E108F10835
:1004700088EE880E83E0981EA11CB11CC114D10423
:10048000E104F10419F7DDCFFF90EF90DF90CF90FA
:10049000BF90AF909F908F9008952FB7F894609180
:1004A00053017091540180915501909156012FBFD5
:1004B00008950E945A056115710579F0FB010190BC
:1004C0000020E9F73197AF01461B570BDC01ED9196
:1004D000FC910280F381E02D099480E090E0089582
:1004E0004F925F926F927F92EF92FF920F931F93C2
:1004F000CF93DF93CDB7DEB7A1970FB6F894DEBFE9
:100500000FBECDBF7C01FA01CB0119A2223008F445
:100510002AE08E010F5D1F4F422E512C612C712C51
:10052000BF01A30192010E945F05F901CA010150B8
:1005300011096A3014F4605D01C0695CD8016C93E4
:10054000232B242B252B61F7B801C7010E945B02E6
:10055000A1960FB6F894DEBF0FBECDBFDF91CF914D
:100560001F910F91FF90EF907F906F905F904F9051
:1005700008951F920F920FB60F9211242F933F935D
:100580004F935F936F937F938F939F93AF93BF939B
:10059000EF93FF938AE991E00E945A01FF91EF9156
:1005A000BF91AF919F918F917F916F915F914F918B
:1005B0003F912F910F900FBE0F901F9018951F9293
:1005C0000F920FB60F9211242F938F939F93EF9357
:1005D000FF93E091AA01F091AB018081E091B0011D
:1005E000F091B10182FD12C090818091B3018F5FC3
:1005F0008F732091B401821751F0E091B301F0E0C4
:10060000E656FE4F958F8093B30101C08081FF9124
:10061000EF919F918F912F910F900FBE0F901F9090
:1006200018951F920F920FB60F9211242F933F939C
:100630008F939F93AF93BF938091530190915401F7
:10064000A0915501B09156013091520126E0230F3F
:100650002D3720F40296A11DB11D05C029E8230FF6
:100660000396A11DB11D20935201809353019093D5
:100670005401A0935501B093560180915701909178
:100680005801A0915901B0915A010196A11DB11DC7
:100690008093570190935801A0935901B0935A0148
:1006A000BF91AF919F918F913F912F910F900FBE6E
:1006B0000F901F901895789484B5826084BD84B59E
:1006C000816084BD85B5826085BD85B5816085BD4D
:1006D00080916E00816080936E0010928100809105
:1006E000810082608093810080918100816080938D
:1006F0008100809180008160809380008091B100B2
:1007000084608093B1008091B00081608093B000DC
:1007100080917A00846080937A0080917A00826070
:1007200080937A0080917A008E7F80937A00809106
:100730007A00806880937A001092C10010928E0136
:1007400010928F01109290011092910110925C0111
:1007500010925D0110925E0110925F0160ED77E0F2
:1007600080E090E00E9413028AE991E090938D016D
:1007700080938C010E9487000E944D0200915C01D1
:1007800010915D0120915E0130915F01DC01CB0190
:10079000801B910BA20BB30BC297A105B10538F4D6
:1007A00063E070E080E090E00E941302E5CF0E94D9
:1007B0004D0260935C0170935D0180935E019093A4
:1007C0005F0160E171E080918C0190918D010E9448
:1007D0005B026AE070E080E090E00E94130281E03A
:1007E00080936001EDE9F0E02491E9E8F0E0849184
:1007F000882399F090E0880F991FFC01E859FF4F7A
:10080000A591B491FC01EE58FF4F859194918FB75B
:10081000F894EC91E22BEC938FBF0E9487000E942A
:100820004D02672B682B692B09F061C00E944D02B5
:10083000623071058105910508F059C03DC00E94E4
:100840004D0260935C0170935D0180935E01909313
:100850005F0162E271E080918C0190918D010E94B4
:100860005B026AE271E080918C0190918D010E949F
:100870005B020E944D02AB01BC012AE080918C0119
:1008800090918D010E9470026CE271E080918C0168
:1008900090918D010E945B0265E070E080E090E045
:1008A0000E9413026AE070E080E090E00E94130270
:1008B00080916001811174C081E00E94AF0065E405
:1008C00071E08AE991E00E945B0268EE73E080E0EB
:1008D00090E00E94130280E00E94AF0068EE73E097
:1008E00080E090E00E9413020E94E40198CF0E94F1
:1008F0004D026093960170939701809398019093B5
:1009000099010091920110919301209194013091ED
:100910009501601771078207930740F46093920175
:1009200070939301809394019093950100919201AB
:100930001091930120919401309195016B017C01FC
:10094000C01AD10AE20AF30A970186010A3F11058B
:100950002105310508F4B0CF6093920170939301A3
:1009600080939401909395010E944D0200915C0147
:1009700010915D0120915E0130915F01DC01CB019E
:10098000801B910BA20BB30BC297A105B10508F018
:1009900056CF63E070E080E090E00E941302E4CF65
:1009A00080918C0190918D01DC01ED91FC9104808E
:1009B000F581E02D0995892B99F380918C01909117
:1009C0008D01DC01ED91FC910480F581E02D09950C
:1009D000181619060CF070CF80918C0190918D0142
:1009E000DC01ED91FC910680F781E02D09959927B6
:1009F0008336910551F08637910509F45DCF88352E
:100A00009105D9F610926001D8CF65E371E080912D
:100A10008C0190918D010E945B022AE041E050E040
:100A200060E070E080918C0190918D010E947002D5
:100A30006CE371E080918C0190918D010E945B02CA
:100A400062E370E080E090E00E94130235CFEAE9B3
:100A5000F1E01382128288EE93E0A0E0B0E084839C
:100A60009583A683B78384E091E09183808385ECAE
:100A700090E09587848784EC90E09787868780EC68
:100A800090E0918B808B81EC90E0938B828B82EC59
:100A900090E0958B848B86EC90E0978B868B118E03
:100AA000128E138E148E0895EE0FFF1F0590F49191
:100AB000E02D099481E090E0F8940C948105A1E286
:100AC0001A2EAA1BBB1BFD010DC0AA1FBB1FEE1FC8
:100AD000FF1FA217B307E407F50720F0A21BB30B13
:100AE000E40BF50B661F771F881F991F1A9469F78F
:100AF00060957095809590959B01AC01BD01CF01EB
:060B00000895F894FFCFF8
:100B0600000000007B01F700440122013601C2010A
:100B1600564D4450565F317C315F564D4450560D0C
:100B26000A00564D4450455F31007C005F564D44E7
:100B360050450D0A00564D4450435F005F564D44E4
:100B460050430D0A0048656C6C6F20576F726C64D9
:020B56000A0093
:00000001FF
