:100000000C9462020C94AC050C9485050C948A0245
:100010000C948A020C948A020C948A020C948A0230
:100020000C948A020C948A020C948A020C948A0220
:100030000C948A020C948A020C948A020C948A0210
:100040000C943B050C948A020C94F6030C94D00398
:100050000C948A020C948A020C948A020C948A02F0
:100060000C948A020C948A029C07D208D208F007EA
:1000700023083D08D2083808D2088D08D20856084F
:100080009308202050697065204572726F7220437A
:100090006F64653A203078004143492045767420EA
:1000A00050697065204572726F723A2050697065B0
:1000B00020233A0045767420436D64207265737086
:1000C0006F6E653A204572726F722E2041726475B0
:1000D000696E6F20697320696E20616E2077686990
:1000E0006C652831293B206C6F6F700041434920BB
:1000F000436F6D6D616E6420004572726F7220698E
:100100006E2041434920536574757000002C200017
:1001100000000000250028002B000000000800025D
:1001200001000003040700000000000000000000C0
:100130000000240027002A0001020408102040804B
:100140000102040810200102040810200404040421
:100150000404040402020202020203030303030371
:100160000007060000030241D70000000000000065
:10017000000000000000000000000000000000007F
:1001800000001F0610000000000000000400040131
:1001900001000006000090000000000000000000C8
:1001A0000000001F06101C010200000000000000FB
:1001B0000000000000000000000014000000140314
:1001C000900164001F06103802FF0258000500006D
:1001D000000000000000000000100000000000000F
:1001E00000000000000506105400000000000000A0
:1001F00000000000000000000000000000000000FF
:100200000000000000001F0620000404020200019C
:1002100028000100180404050500022803010E034C
:1002200000002A041407001F06201C0400032A00F3
:100230000155415254696373040405050004280301
:1002400001020500012A06001F06203804030200EF
:10025000052A010100000404050500062803010227
:100260000700042A06040908001F06205400072A74
:1002700004010600120000000A0004040202000843
:10028000280001011804041010001F062070000946
:100290002800019ECADC240EE5A9E093F3A3B50172
:1002A00000406E04041313000A28001F06208C036C
:1002B00001040B009ECADC240EE5A9E093F3A3B56C
:1002C0000200406E44101400000B00001F0620A81E
:1002D000020200000000000000000000000000001A
:1002E00000000000000004041313000C001F06208F
:1002F000C4280301100D009ECADC240EE5A9E0937A
:10030000F3A3B50300406E14001400000D001F0697
:1003100020E00003020000000000000000000000D8
:100320000000000000000000004614030200001F4F
:100330000620FC0E290201000004040202000F281E
:1003400000010A1804040505001028030102110029
:100350001906211800272A0404090100112A27017F
:100360000A00000000000000000000000000000083
:10037000001F0640002A0001008004000300000066
:100380000202000804000B00000003020002040047
:100390000D000F06401C000E2A27010080040011EA
:1003A000000000000000000000000000000000004D
:1003B000000000130650009ECADC240EE5A9E0935D
:1003C000F3A3B50000406E00000000000000000034
:1003D000000000000F0660000000000000000000A8
:1003E000000000000000000000000000000000000D
:1003F00000000000000606F00003D38800000000A3
:1004000000000000000000000000000000000000EC
:100410000000000000416461667275697420426CDE
:1004200075656672756974204C6F7720456E6572CC
:100430006779206E524638303031205072696E74C0
:10044000206563686F2064656D6F00206279746554
:100450007320617661696C61626C652066726F6D94
:100460002042544C45002A20446973636F6E6E65C8
:1004700063746564206F7220616476657274697359
:10048000696E672074696D6564206F7574002A2039
:10049000436F6E6E656374656421002A2041647643
:1004A0006572746973696E672073746172746564D0
:1004B00000436D642051756575652046756C6C0050
:1004C000F3100D0C11241FBECFEFD8E0DEBFCDBF5F
:1004D00011E0A0E0B1E0E4E2F9E202C005900D9283
:1004E000A637B107D9F726E0A6E7B1E001C01D9213
:1004F000A83AB207E1F712E0C1E6D2E004C02197C2
:10050000FE010E941112C036D107C9F70E94110CDA
:100510000C9485140C940000FC01918D828D981729
:1005200061F0828DDF01A80FB11D5D968C91928DD7
:100530009F5F9F73928F90E008958FEF9FEF0895D4
:10054000FC01918D828D981731F0828DE80FF11D9D
:10055000858D90E008958FEF9FEF0895FC01918DB8
:10056000228D892F90E0805C9F4F821B91098F73B1
:100570009927089583E994E00E94AE0221E0892B37
:1005800009F420E0822F0895FC01848DDF01A80F7B
:10059000B11DA35ABF4F2C91848D90E001968F73AB
:1005A0009927848FA689B7892C93A089B1898C91CA
:1005B00080648C93938D848D981306C00288F38990
:1005C000E02D80818F7D80830895EF92FF920F93BD
:1005D0001F93CF93DF93EC0181E0888F9B8D8C8DEF
:1005E000981305C0E889F989808185FD24C0F62E1D
:1005F0000B8D10E00F5F1F4F0F731127E02E8C8DB6
:10060000E8120CC00FB607FCFACFE889F98980819F
:1006100085FFF5CFCE010E94C402F1CF8B8DFE0184
:10062000E80FF11DE35AFF4FF0820B8FEA89FB8937
:100630008081806207C0EE89FF896083E889F9893B
:1006400080818064808381E090E0DF91CF911F9171
:100650000F91FF90EF900895CF93DF93EC01888D79
:100660008823C9F0EA89FB89808185FD05C0A889B6
:10067000B9898C9186FD0FC00FB607FCF5CF80813C
:1006800085FFF2CFA889B9898C9185FFEDCFCE0186
:100690000E94C402E7CFDF91CF91089580E090E0FF
:1006A000892B29F00E94BA0281110C940000089550
:1006B0003FB7F8948091E0019091E101A091E201AF
:1006C000B091E30126B5A89B05C02F3F19F0019614
:1006D000A11DB11D3FBFBA2FA92F982F8827820FC8
:1006E000911DA11DB11DBC01CD0143E0660F771F17
:1006F000881F991F4A95D1F708950895089520916C
:1007000078053091790580917A0590917B052817BD
:10071000390749F0E0917A05F0917B05E958FE4FE1
:10072000808190E008958FEF9FEF089520917805E4
:100730003091790580917A0590917B0528173907CA
:10074000E9F0E0917A05F0917B05E958FE4F808150
:1007500020917A0530917B052F5F3F4F30937B05C9
:1007600020937A0520917A0530917B052F733327EA
:1007700030937B0520937A0590E008958FEF9FEFEB
:100780000895809178059091790520917A053091AE
:100790007B05821B930B8F73992708950E940E147B
:1007A0001F920F920FB60F9211242F933F934F93E6
:1007B0005F936F937F938F939F93AF93BF93EF93C9
:1007C000FF9383E994E00E94C402FF91EF91BF91EF
:1007D000AF919F918F917F916F915F914F913F91D9
:1007E0002F910F900FBE0F901F9018951F920F9290
:1007F0000FB60F9211242F938F939F93EF93FF9334
:10080000E091A304F091A4048081E091A904F09107
:10081000AA0482FD12C090818091AC048F5F8F7317
:100820002091AD04821751F0E091AC04F0E0ED5658
:10083000FB4F958F8093AC0401C08081FF91EF91B5
:100840009F918F912F910F900FBE0F901F90189531
:1008500090E0FC01E65EFE4F3491FC01E85CFE4F47
:100860002491FC01E45BFE4FE491EE2309F43BC0CC
:10087000332339F1333091F038F43130A9F032308C
:1008800001F584B58F7D12C0373091F03830A1F07A
:100890003430B9F4809180008F7D03C08091800056
:1008A0008F77809380000DC084B58F7784BD09C099
:1008B0008091B0008F7703C08091B0008F7D8093CE
:1008C000B000F0E0EE0FFF1FE05FFE4FA591B49186
:1008D0008FB7F894EC91611103C020952E2301C0CD
:1008E0002E2B2C938FBF0895209138063091390616
:1008F00090913A062130310519F48091340605C0F3
:100900002230310549F480913606992311F060E0D8
:1009100001C061E00E94280490913A0681E0892795
:1009200080933A060895E0910E01EA3038F481E1AF
:10093000E802F0011124EB57FA4F108210923906A9
:100940001092380610923A0661E0809134060E94B7
:10095000280461E0809136060E9428048FEF9FEF03
:1009600090930F0180930E0190930D0180930C01E1
:100970000895CF93DF9390E0FC01E85CFE4F249153
:10098000FC01E45BFE4F8491882361F190E0880FC5
:10099000991FFC01E25DFE4FC591D491FC01E05F1F
:1009A000FE4FA591B491611109C09FB7F894888159
:1009B000209582238883EC912E230BC0623061F452
:1009C0009FB7F8943881822F809583238883EC9198
:1009D0002E2B2C939FBF06C08FB7F894E8812E2B47
:1009E00028838FBFDF91CF9108958F929F92AF920E
:1009F000BF92CF92DF92EF92FF926B017C010E9437
:100A000058034B015C01C114D104E104F104F1F07D
:100A10000E945803DC01CB0188199909AA09BB0976
:100A2000883E9340A105B10570F321E0C21AD108B8
:100A3000E108F10888EE880E83E0981EA11CB11C25
:100A4000C114D104E104F10419F7DDCFFF90EF9058
:100A5000DF90CF90BF90AF909F908F9008952FB769
:100A6000F8946091DC017091DD018091DE0190913C
:100A7000DF012FBF08951F920F920FB60F9211241E
:100A80002F933F938F939F93AF93BF938091DC01FC
:100A90009091DD01A091DE01B091DF013091DB0189
:100AA00026E0230F2D3720F40296A11DB11D05C0AD
:100AB00029E8230F0396A11DB11D2093DB0180932C
:100AC000DC019093DD01A093DE01B093DF01809102
:100AD000E0019091E101A091E201B091E301019662
:100AE000A11DB11D8093E0019093E101A093E2016B
:100AF000B093E301BF91AF919F918F913F912F915F
:100B00000F900FBE0F901F9018951F920F920FB667
:100B10000F9211242F933F934F935F936F937F9383
:100B20008F939F93AF93BF93EF93FF93E091130144
:100B3000F09114010995FF91EF91BF91AF919F91B1
:100B40008F917F916F915F914F913F912F910F9076
:100B50000FBE0F901F9018951F920F920FB60F9215
:100B600011242F933F934F935F936F937F938F93B2
:100B70009F93AF93BF93EF93FF93E0911101F09197
:100B800012010995FF91EF91BF91AF919F918F91C4
:100B90007F916F915F914F913F912F910F900FBE79
:100BA0000F901F90189520917D05022E000C330B9D
:100BB0002330310529F022303105C1F430E001C085
:100BC00031E02DB3882341F081E090E001C0880F2F
:100BD0003A95EAF7822B08C081E090E001C0880FC7
:100BE0003A95EAF7809582238DBB0895FFCF0F9346
:100BF0001F93CF93DF93CDB7DEB7A1970FB6F894CD
:100C0000DEBF0FBECDBF83B78E7F83BFE091E6010D
:100C1000E23070F4E13011F0E89801C0E998F0E0BA
:100C2000EE0FFF1FEF5EFE4F8DE793E09183808311
:100C30008091E501882399F02FB7F8948091E50120
:100C4000813059F48DB38093DA019DB38091E40132
:100C5000809589238DBB2FBF02C02093DA0180E7E6
:100C60008CBD1DBC60E080917E050E9428048091AF
:100C7000EF029091F002891709F4ACC090E021E2F4
:100C8000289FF001299FF00D1124E951FE4FDE014C
:100C9000119601900D922A95E1F701968770992798
:100CA0008093EF028A818EBD00000DB407FEFDCF58
:100CB0008EB58093F1028B818EBD00000DB407FECE
:100CC000FDCF8EB58093F2029A81992349F0292FA6
:100CD00030E0482F50E04217530714F48FEF890F8C
:100CE000803208F08FE1A3EFB2E09E012C5F3F4F0E
:100CF000F9019E2F921B981748F491919EBD000018
:100D00000DB407FEFDCF9EB59D93F3CF61E08091BA
:100D10007E050E9428048091E501882361F09FB739
:100D2000F8942091E5018091DA01213019F48DBB0E
:100D30009FBF01C08FBF83B7816083BF8091E601F1
:100D40000E94B3099091EF028091F002981729F068
:100D500060E080917E050E9428044091F2024423C5
:100D6000D9F12091700430E089010F5F1F4F0770A7
:100D7000112780916F04801761F151E2529FC001E9
:100D8000539F900D1124FC01E959FC4F108250E053
:100D90004F5F5F4F62EF72E088599C4F0E941314BF
:100DA00000937004F894809170048F5F8770909125
:100DB0006F047894891310C080E0A1960FB6F89460
:100DC000DEBF0FBECDBFDF91CF911F910F910C946D
:100DD000D305FFCF1A8266CFA1960FB6F894DEBF77
:100DE0000FBECDBFDF91CF911F910F9108950F934B
:100DF0001F93CF93DF938C01FC01D1814D2F50E0E5
:100E000060E070E02AE083E994E00E945C0B6BE311
:100E100071E083E994E00E94C20AC0E0F801EC0F9F
:100E2000F11D418150E060E070E020E183E994E051
:100E30000E945C0B6DE071E083E994E00E949E0AE1
:100E4000CF5FDC1758F76CE071E083E994E0DF9145
:100E5000CF911F910F910C94A50B0F931F93CF93DC
:100E6000DF93FC0141814032C8F58C012091F002F2
:100E700030E0E9012196C770DD278091EF028C17E1
:100E8000C1F051E2529FC001539F900D1124FC010B
:100E9000E951FE4F108250E04F5F5F4FB8016F5F26
:100EA0007F4F88519E4F0E941314C093F002C1E0FF
:100EB00001C0C0E080916603882349F06EE371E0D1
:100EC00083E994E00E94C20AC8010E94F70660E02C
:100ED00080917E050E9428048C2F01C080E0DF9164
:100EE000CF911F910F910895E3E4F3E025E0218372
:100EF0002FE022839483838376836583CF010C94D0
:100F00002D070F931F93CF93DF93EC0188EB91E0B4
:100F10000E94D70A882309F445C1E091BA018E2FB7
:100F200090E0FC01E158F109ED30F10508F03AC11B
:100F3000EC5CFF4F0C9411128091BD0180937804FA
:100F40008091BB01823019F08330B9F12BC18091BF
:100F50007604893010F460E01BC000E010E028E85F
:100F600030E090917604892F86958695869518179E
:100F700040F4602F88E00E94B90B9C011F5F085F5E
:100F8000F0CF892F877039F0612F660F660F660FDB
:100F90000E94B90B9C012230310509F403C18889F4
:100FA000882309F4FFC069EF70E083E994E0DF91E2
:100FB000CF911F910F910C94A50B8D89882309F473
:100FC00063C0BE016B5E7F4FFB0101900020E9F71B
:100FD0003197AF01461B570B81E00E94BD1154C0F1
:100FE0008091BC01882301F188898823E1F06CEEAF
:100FF00070E083E994E00E949E0A4091BB0150E0BA
:1010000060E070E020E183E994E00E945C0B6FE413
:1010100071E083E994E00E94C20A64EB70E083E926
:1010200094E00E94A50BFFCF8091BB01893009F0AD
:10103000B9C049E06DEB71E084E0DF91CF911F9181
:101040000F910C94BD118091780480937B0481E012
:101050008093440389E08093450383E493E00E94F6
:101060002D0785E88D8FEC85FD85309709F0099572
:101070008091820483FF96C085C086E88D8FEC85C1
:10108000FD85309709F009956B897C8989899A8952
:101090000E94740781E88D8FEC85FD85309709F4F7
:1010A00081C0DF91CF911F910F9109946091B90197
:1010B000625020E030E0462F50E0241735070CF551
:1010C000809178059091790501968F739927E09129
:1010D0007A05F0917B058E179F0781F0E0917805E6
:1010E000F0917905E958FE4FD901A854BE4F1496E6
:1010F0007C91708390937905809378052F5F3F4FA3
:10110000DCCFEE85FF85309709F44CC08CEB91E085
:10111000DF91CF911F910F9109949091BB01809124
:101120007B04890F2CC08889882331F168E970E03D
:1011300083E994E00E949E0A4091BB0150E060E088
:1011400070E02AE083E994E00E945C0B62E870E0C2
:1011500083E994E00E949E0A4091BC0150E060E067
:1011600070E020E183E994E00E945C0B6FE471E0A1
:1011700083E994E00E94C20A80917B048F5F809390
:101180007B0410C08091B70181110CC0C1E0C093F5
:10119000440383E18093450383E493E00E942D0799
:1011A000C093B701DF91CF911F910F9108951F93C5
:1011B000CF93DF93EC01162F80917B0481110AC03D
:1011C000CE010E9481076AE070E080E090E00E941A
:1011D000F504F2CF8091820483FF29C0E09164037B
:1011E000F0916503878190858230910511F0049715
:1011F00081F483E08093440395E1909345038093C9
:101200004603109347031092760183E493E00E9413
:101210002D0780917B04815080937B0463E270E012
:1012200080E090E00E94F50481E090E005C0CE01EE
:101230000E94810780E090E0DF91CF911F91089597
:1012400080910C0190910D018F3F2FEF920779F063
:101250008A3038F421E18202F0011124EB57FA4F71
:1012600010828FEF9FEF90930D0180930C0180917E
:101270000E0190910F018F3F2FEF9207F9F08A3006
:1012800038F421E18202F0011124EB57FA4F108269
:10129000109239061092380610923A0661E0809159
:1012A00034060E94280461E0809136060E942804DA
:1012B0008FEF9FEF90930F0180930E010895089593
:1012C000CF92DF92EF92FF920F931F93CF93DF9312
:1012D0006C017A018B01C0E0D0E0CE15DF0589F00A
:1012E000D8016D918D01D601ED91FC910190F081B5
:1012F000E02DC6010995892B11F47E0102C02196CB
:10130000ECCFC701DF91CF911F910F91FF90EF902C
:10131000DF90CF900895E3E9F4E0A089B18982E0FD
:101320008C93A485B5851C92A685B78587E68C939A
:10133000108EA489B58986E08C93A289B3898C919B
:1013400080618C93A289B3898C9188608C93A289E7
:10135000B3898C9180688C930288F389E02D808119
:101360008F7D808308958230C8F4E82FF0E0EE0F7F
:10137000FF1FEF5EFE4F27EF35E031832083813082
:1013800039F0809169008C7F80936900E89A089514
:1013900080916900837F80936900E99A08950F9393
:1013A0001F93CF93DF93EC0188819981009729F0F7
:1013B0002A813B812617370788F48B016F5F7F4FA7
:1013C0000E944413009761F0998388831B830A83EA
:1013D0002C813D81232B11F4FC01108281E001C09E
:1013E00080E0DF91CF911F910F910895CF93DF930C
:1013F000EC0188819981009711F00E94AC1219824A
:1014000018821D821C821B821A82DF91CF9108955F
:10141000EF92FF920F931F93CF93DF93EC01FB01A9
:1014200086179707B9F0008111810115110539F070
:10143000E480F580B7010E94CF09811104C0CE017C
:101440000E94F60907C0FD82EC82B801888199816B
:101450000E941C14CE01DF91CF911F910F91FF903C
:10146000EF900895FC01808191810C94AC12EF9271
:10147000FF920F931F93CF93DF93EC011982188291
:101480001B821A821D821C826115710521F18B015C
:10149000FB0101900020E9F731977F01E61AF70A76
:1014A000B7010E94CF09811109C0CE01DF91CF9110
:1014B0001F910F91FF90EF900C94F609FD82EC8242
:1014C000B80188819981DF91CF911F910F91FF9091
:1014D000EF900C941C14DF91CF911F910F91FF900E
:1014E000EF9008950F931F93CF93DF938C018AE0C1
:1014F00090E00E941712EC0161E571E00E94370A4A
:10150000B801CE010E94080AE0913C06F0913D0628
:10151000FF83EE8319861886309719F0D187C0872C
:1015200004C0D0933F06C0933E06D0933D06C093BF
:101530003C06DF91CF911F910F910895EF92FF929A
:101540000F931F93CF93DF938C017B01C0E0D0E01A
:10155000F701EC0FFD1F6491662361F0D801ED9156
:10156000FC910190F081E02DC8010995892B11F0C3
:101570002196EECFCE01DF91CF911F910F91FF9079
:10158000EF9008956115710579F0FB01019000203D
:10159000E9F73197AF01461B570BDC01ED91FC9148
:1015A0000280F381E02D099480E090E008950F938C
:1015B0001F93CF93DF93EC01F89410917004009186
:1015C0006F047894E0916F0480917004E81759F1EA
:1015D00081E28E9FF0011124E959FC4FDE01019058
:1015E0000D928A95E1F780916F0490E001968770E3
:1015F000992780936F0480916603882349F062E7FE
:1016000071E083E994E00E94C20ACE010E94F706CD
:10161000812F90E0019687709927081306C081E01A
:101620000E94D30502C080E001C081E09A81983811
:10163000A9F0993851F19638D1F5EAE8F4E098E04C
:101640009E0FDF0118971C9211929E13FACF1092F1
:1016500092049091780490937B0429C0FE013B96FC
:10166000AAE8B4E0AE014D5E5F4F9F0128503109FA
:10167000E90198819D0128503109E90198839191F0
:101680009D93E417F50789F712C02B813C813093B5
:101690007D0420937C042D813E8130937F04209330
:1016A0007E042F8138853093810420938004DF915C
:1016B000CF911F910F9108954F925F926F927F92F9
:1016C000EF92FF920F931F93CF93DF93CDB7DEB7C7
:1016D000A1970FB6F894DEBF0FBECDBF7C01FA0113
:1016E000CB0119A2223008F42AE08E010F5D1F4FB2
:1016F000422E512C612C712CBF01A30192010E943A
:101700002C14F901CA01015011096A3014F4605D0A
:1017100001C0695CD8016C93232B242B252B61F726
:10172000B801C7010E94C20AA1960FB6F894DEBFA5
:101730000FBECDBFDF91CF911F910F91FF90EF9022
:101740007F906F905F904F9008950F931F93CF936A
:10175000DF93EC010E949E0A8C016FE471E0CE01E0
:101760000E94C20A800F911FDF91CF911F910F91AC
:101770000895EF92FF920F931F93CF93DF93F82E6C
:1017800081E2689FE001112400E010E0E12CEF14F9
:1017900021F198012C0F3D1F609174047091750424
:1017A000620F731FFB013196449150E04E5F5F4F13
:1017B00083E896E00E94231483E896E00E942D07B8
:1017C0000F5D1F4F811107C061EB74E083E994E066
:1017D0000E94A50B19C0E394DACFC0E081E696E041
:1017E0000E94D70A8823D1F3CF5F809163068438A3
:1017F00059F4909165068FEF890F823010F4FC1236
:10180000EDCF892F90E002C081E890E0DF91CF9189
:101810001F910F91FF90EF9008958FE795E00C9442
:10182000320ACF93DF93CDB7DEB72C970FB6F8947B
:10183000DEBF0FBECDBF789484B5826084BD84B511
:10184000816084BD85B5826085BD85B5816085BDBB
:1018500080916E00816080936E0010928100809173
:1018600081008260809381008091810081608093FB
:101870008100809180008160809380008091B10020
:1018800084608093B1008091B00081608093B0004B
:1018900080917A00846080937A0080917A008260DF
:1018A00080937A0080917A008E7F80937A00809175
:1018B0007A00806880937A001092C10010927405BB
:1018C00010927505109276051092770510923205E8
:1018D00010923305109234051092350560ED77E0D3
:1018E00080E090E00E94F50483E994E09093730512
:1018F000809372050E948B090E942F056093320528
:1019000070933305809334059093350560E471E05E
:1019100080917205909173050E94C20A6AE070E09E
:1019200080E090E00E94F50481E0809346050E94EB
:101930008B0965E174E083E994E00E94A50B85E0E2
:10194000E2E5F1E0A5E5B6E001900D928A95E1F7B8
:10195000109252061092510680E590E09093540642
:101960008093530680E091E0909372048093710419
:1019700084E08093730480E691E0909375048093F3
:10198000740485E180937604AAE8B4E047E253E06A
:1019900088E0840F9D0128503109F90110821D92C1
:1019A000FA011192AF018E13F5CF10922603109217
:1019B000250310922403109223038FEF80932203B8
:1019C000809321038093200310921F0310921E0323
:1019D00010921D0310921C0310921B0310921A0305
:1019E000109219031092180310921703809171043A
:1019F00090917204909365038093640384E08093D4
:101A0000160380E691E0909315038093140385E11B
:101A1000809313031092F2021FB7F894809112037F
:101A2000811127C0E6E5F1E08491E2E4F1E09491D0
:101A3000E82FF0E0EE0FFF1FE25DFE4FA591B4919D
:101A4000EC91E92321F461E08AE00E94280461E03E
:101A50008AE00E94B9048CB580618CBD8CB580642D
:101A60008CBD61E08DE00E94B90461E08BE00E94D2
:101A7000B904809112038F5F809312031FBF1092ED
:101A800066031092EF021092F00280E090E0FC01F9
:101A9000E951FE4F1182128281968830F1E09F0752
:101AA000B1F710926F041092700480E090E0FC0196
:101AB000E951FE4F118212828196883021E092070F
:101AC000B1F761E080917C050E94B90462E08091E9
:101AD0007D050E94B90461E080917E050E94B904F1
:101AE00061E080917C050E94280464E670E080E05B
:101AF00090E00E94F50460E080917C050E9428043B
:101B000061E080917C050E94280460E08DE00E94E5
:101B1000280460E08BE00E94280461E080917E054B
:101B20000E94280460E08DE00E9428048FEF8093DB
:101B3000E60180917D05082E000C990B82309105FD
:101B400019F41092E60105C0039719F481E080931F
:101B5000E6016EE170E080E090E00E94F504809183
:101B6000E6019FB7F894882349F0813011F482E0B0
:101B700006C082E08093E50180E001C081E0209111
:101B8000E401822B8093E4018091E501811103C07F
:101B900081E08093E5019FBF8091E6010E94B30937
:101BA00061E0809134060E94B90461E080913606BC
:101BB0000E94B90461E0809134060E94280461E02B
:101BC000809136060E942804EE24E394F12C64EF01
:101BD000862E99249394A12CB12C80E496E00E9447
:101BE00081070E942F052B013C0135E8232E35E0AB
:101BF000332E4DE8C42E45E0D42E8101D8012C911E
:101C0000222309F445C01B968D919D910D90BC91A6
:101C1000A02DB301A201481B590B6A0B7B0BF801E5
:101C200081819281A381B481481759076A077B0794
:101C300000F1213019F0223031F011C00184F28519
:101C4000E02D09950CC061E0F6018081811160E012
:101C5000D6016C93F601319780810E942804F80127
:101C60004386548665867686878590890196908B13
:101C70008787D80115968D919C91169797FD08C07E
:101C80001F962D913C915097281739070CF01C9204
:101C90000F5E1F4FB1E1CB0ED11CE6E00F321E07E5
:101CA00009F0ACCF10915D06809110011817A1F0DA
:101CB000113819F46BE974E009C0153819F46EE8AD
:101CC00074E004C0163831F466E674E083E994E009
:101CD0000E94A50B10931001153879F000913E0673
:101CE00010913F060115110509F0C0C061E571E0D2
:101CF000CE0107960E94370AF2C080E496E00E9467
:101D0000C103892B89F167E571E083E994E00E94C2
:101D1000C20A80E496E00E94C1032C01990F660874
:101D2000770877FE14C0E0919304F0919404019039
:101D3000F081E02D6DE283E994E009954427552771
:101D4000BA0144195509660977092AE003C02AE057
:101D5000B301A20183E994E00E945C0B6BE474E0A0
:101D600083E994E00E94A50B2FE2C22E23E0D22E3D
:101D700086010F52134080E496E00E94C103892B34
:101D8000C9F080E496E00E949603182F482F880F30
:101D9000550B660B770B20E183E994E00E945C0B06
:101DA0006FE471E083E994E00E94C20AD6011D93BA
:101DB0006D01DECF0115110509F490CF61E571E0E9
:101DC00083E994E00E94C20A6FE471E083E994E041
:101DD0000E94C20A6AE571E083E994E00E94C20AA7
:101DE0009FE2C92E93E0D92EF60141916F01042E96
:101DF000000C550B660B770B20E183E994E00E9401
:101E00005C0BC6018F529340801791076CF361E51C
:101E100071E083E994E00E94C20A6FE471E083E913
:101E200094E00E94C20A8FE2C82E83E0D82ED60129
:101E30008D916D01813029F0823089F465E571E082
:101E400002C065E671E0CE0101960E94370ACE011C
:101E500001960E94720ACE0101960E94320AC601C2
:101E60008F5293408017910714F338CFD8011896FA
:101E7000ED91FC911997F0933F06E0933E06309761
:101E800029F410923D0610923C0602C01782168279
:101E90001A8219821C821B821E821D82B801CE0109
:101EA00001960E94080AC8010E94320AC8010E94D5
:101EB000AC1289819A8198878F838B819C819A87C4
:101EC00089878D819E819C878B871A8219821C82CB
:101ED0001B821E821D82CE0101960E94320A8091D1
:101EE0007F05909180050097C9F06F817885611515
:101EF000710591F040918105509182052B853C85BB
:101F00004217530748F00E941C148B859C859093C0
:101F100084058093830518C00E94AC128F81988538
:101F20009093800580937F0589859A85909382059B
:101F3000809381058B859C85909384058093830590
:101F400018861F821A8619861C861B86CE01079664
:101F50000E94320A8091830590918405892B09F4AF
:101F600044C0E0917F05F091800580818823E9F1EC
:101F700067E671E0CE0101960E94370A80918305E1
:101F800090918405C0907F05D09080050D811E81C1
:101F9000C114D10409F422C10097A9F0080F191F38
:101FA000B801CE0101960E94CF09882309F416C119
:101FB00029813A818D819E81B601820F931F0E94F3
:101FC0001C141E830D834D815E8169817A8183E9B2
:101FD00094E00E9460096FE471E083E994E00E945C
:101FE000C20ACE0101960E94320A80918305909127
:101FF0008405892B09F4EFC0E0917F05F0918005FD
:102000008081882309F4E7C0EF2B09F4E4C08C3405
:1020100081F0823509F0DFC00E94200982E090E063
:102020009093390680933806E5E8F5E000E010E08B
:1020300056C00E942009F0923906E0923806E5E881
:10204000F5E000E010E0808181112BC021E1209FAC
:10205000C001219F900D1124FC01EB57FA4F6F0135
:1020600021E02083DF0181829282A382B482EFEF9C
:10207000FFEF1696FC93EE93159784E794E01A967B
:102080009C938E9319970E942F05D6011B966D93F2
:102090007D938D939C931E9750961C921E921F9732
:1020A00007C00F5F1F4F71960A30110561F60FEFE1
:1020B000002E000C110B10930F0100930E0100E095
:1020C00010E0F1018081882309F44BC00F5F1F4F9E
:1020D000B1E12B0E311C0A30110599F774C08081D3
:1020E00081112BC021E1209FC001219F900D11245F
:1020F000FC01EB57FA4F6F0121E02083DF01818261
:102100009282A382B482EFEFFFEF1696FC93EE93D8
:10211000159784E794E01A969C938E9319970E94E2
:102120002F05D6011B966D937D938D939C931E97DF
:1021300050961C921E921F9707C00F5F1F4F7196FB
:102140000A30110561F60FEF002E000C110B1093F1
:102150000F0100930E0100E010E0F1018081811178
:102160002AC021E1209FC001219F900D11249C01D4
:102170002B573A4F6901E1E0D901EC9388E893E1EC
:10218000A0E0B0E0F90181839283A383B483F68257
:10219000E58223E934E0328721870E942F05D601AA
:1021A0001B966D937D938D939C931E9750961C92D6
:1021B0001E921F9709C00F5F1F4FB1E12B0E311CFC
:1021C0000A30110551F60FEF002E000C110B109381
:1021D0000D0100930C010E944E03FFCCCE0101962D
:1021E0000E94F609F0CE109296041092950488EEA3
:1021F00093E0A0E0B0E08093970490939804A093BC
:102200009904B0939A042FE131E030939404209321
:10221000930425EC30E03093A00420939F0424EC39
:1022200030E03093A2042093A10420EC30E03093FE
:10223000A4042093A30421EC30E03093A60420935F
:10224000A50422EC30E03093A8042093A70426ECE8
:1022500030E03093AA042093A9041092AC041092A9
:10226000AD041092AE041092AF0410923605109295
:102270003705109238051092390510923A051092E0
:102280003B0510923C0510923D0510923E051092C0
:102290003F051092400510924105109242051092A0
:1022A0004305109244051092450510924306109282
:1022B00042068093440690934506A0934606B09349
:1022C00047068FE291E0909341068093400681E0BB
:1022D000809350068AE080937E0582E080937D059E
:1022E00089E080937C0510924F0610924E06109262
:1022F0004D0610924C0688E0E5E5F6E0DF011D9200
:102300008A95E9F710927B0510927A05109279056B
:102310001092780586E880935D0610923D06109233
:102320003C0610923F0610923E0683E090E09093A8
:1023300035068093340684E090E0909337068093CE
:102340003606109239061092380610923A0610920C
:10235000300610922F061092320610923106E5E8F0
:10236000F5E010827196B6E0EF32FB07D1F761E538
:1023700071E08FE795E00C94370AEF92FF920F938C
:102380001F93CF93DF93CDB7DEB765970FB6F89461
:10239000DEBF0FBECDBFE0916403F091650393E013
:1023A000899FE00DF11D112433979081913059F5EB
:1023B000453148F5142F082FE42EF12CA701CE014A
:1023C00002960E9413141E5F109344038DE08093C5
:1023D000450300934603A701BE016E5F7F4F87E46C
:1023E00093E00E94131483E493E065960FB6F8948B
:1023F000DEBF0FBECDBFDF91CF911F910F91FF9038
:10240000EF900C942D0780E065960FB6F894DEBF30
:102410000FBECDBFDF91CF911F910F91FF90EF9035
:102420000895EE0FFF1F0590F491E02D0994CF93CE
:10243000DF938230910510F482E090E0E091A606EF
:10244000F091A70620E030E0C0E0D0E0309711F135
:102450004081518148175907C0F04817590761F466
:1024600082819381209719F09B838A832BC090935C
:10247000A7068093A60626C02115310519F042173C
:10248000530718F49A01BE01DF01EF010280F381C6
:10249000E02DDCCF2115310509F1281B390B243043
:1024A000310590F412968D919C91139761157105E9
:1024B00021F0FB019383828304C09093A70680934D
:1024C000A606FD01329644C0FD01E20FF31F819381
:1024D0009193225031092D933C933AC02091A40648
:1024E0003091A506232B41F420911701309118015A
:1024F0003093A5062093A406209115013091160172
:102500002115310541F42DB73EB740911901509185
:102510001A01241B350BE091A406F091A506E217E1
:10252000F307A0F42E1B3F0B2817390778F0AC01F6
:102530004E5F5F4F2417350748F04E0F5F1F5093D3
:10254000A5064093A4068193919302C0E0E0F0E0D9
:10255000CF01DF91CF9108950F931F93CF93DF9316
:10256000009709F48CC0FC0132971382128200910B
:10257000A6061091A7060115110581F4208131816D
:10258000820F931F2091A4063091A50628173907C2
:1025900079F5F093A506E093A40671C0D80140E058
:1025A00050E0AE17BF0750F412962D913C9113974F
:1025B000AD012115310509F1D901F3CF9D01DA01F2
:1025C0003383228360817181860F971F821793075F
:1025D00069F4EC0128813981260F371F2E5F3F4FA8
:1025E000318320838A819B8193838283452B29F4C5
:1025F000F093A706E093A60642C01396FC93EE93D1
:102600001297ED01499159919E01240F351FE21750
:10261000F30771F480819181840F951F02961196C2
:102620009C938E938281938113969C938E931297A1
:10263000E0E0F0E0D80112968D919C9113970097FD
:1026400019F0F8018C01F6CF8D919C9198012E5FC5
:102650003F4F820F931F2091A4063091A5062817A3
:10266000390769F4309729F41092A7061092A6064C
:1026700002C0138212821093A5060093A406DF9174
:10268000CF911F910F910895A0E0B0E0EAE4F3E14B
:102690000C945214EC01009721F4CB010E94171204
:1026A000B8C0FC01E60FF71F9C0122503109E21768
:1026B000F30708F4ACC0D9010D911C9111970617CE
:1026C0001707B0F00530110508F49FC0C801049742
:1026D0008617970708F499C002501109061B170BBB
:1026E000019311936D937C93CF010E94AC128DC026
:1026F0005B01A01AB10A4C01800E911EA091A606A2
:10270000B091A70640E050E0E12CF12C109709F4BD
:102710004AC0A815B905D1F56D907C901197630159
:1027200082E0C80ED11CCA14DB0480F1A3014A194F
:102730005B096A0182E0C80ED11C1296BC90129708
:102740001396AC91B5E0CB16D10440F0B282A383CE
:1027500051834083D9016D937C930AC00E5F1F4F54
:10276000C301800F911FF90191838083EB2DFA2F14
:10277000E114F10431F0D7011396FC93EE93129714
:1027800044C0F093A706E093A6063FC08D919C91AC
:1027900011974817590708F4AC017D0112960D9066
:1027A000BC91A02DB3CF8091A4069091A506881569
:1027B0009905E1F446175707C8F4809115019091E7
:1027C0001601009741F48DB79EB7409119015091C1
:1027D0001A01841B950BE817F907C8F4F093A506B6
:1027E000E093A406F901718360830FC0CB010E94BE
:1027F00017127C01009759F0A801BE010E94131422
:10280000CE010E94AC12C70104C0CE0102C080E01C
:1028100090E0CDB7DEB7EEE00C946E1481E090E06E
:10282000F8940C948514FB01DC0102C001900D9218
:1028300041505040D8F70895FB01DC0101900D9202
:102840000020E1F70895FB01DC0102C005900D9224
:1028500041505040D8F70895A1E21A2EAA1BBB1B85
:10286000FD010DC0AA1FBB1FEE1FFF1FA217B3075C
:10287000E407F50720F0A21BB30BE40BF50B661F72
:10288000771F881F991F1A9469F760957095809536
:1028900090959B01AC01BD01CF0108952F923F920D
:1028A0004F925F926F927F928F929F92AF92BF9260
:1028B000CF92DF92EF92FF920F931F93CF93DF930C
:1028C000CDB7DEB7CA1BDB0B0FB6F894DEBF0FBE69
:1028D000CDBF09942A88398848885F846E847D84B6
:1028E0008C849B84AA84B984C884DF80EE80FD80B8
:1028F0000C811B81AA81B981CE0FD11D0FB6F8942E
:10290000DEBF0FBECDBFED01089512E0C1E6D2E0FB
:1029100004C0FE010E9411122196C236D107C9F7E8
:04292000F894FFCF59
:10292400018000010800010200018000FFFFFFFF99
:10293400867D037D030000A806800000000000E5FA
:10294400026009AE028C02A0022C0300000000D732
:10295400086009C10396037F037E03203A00430005
:10296400564D4450565F317C315F564D4450560DA0
:102974000A0052454152002A20004D657373616775
:1029840065203A20004C00436F6D6D616E64203AFF
:06299400200020450000B8
:107800000C94343C0C94513C0C94513C0C94513CE1
:107810000C94513C0C94513C0C94513C0C94513CB4
:107820000C94513C0C94513C0C94513C0C94513CA4
:107830000C94513C0C94513C0C94513C0C94513C94
:107840000C94513C0C94513C0C94513C0C94513C84
:107850000C94513C0C94513C0C94513C0C94513C74
:107860000C94513C0C94513C11241FBECFEFD8E036
:10787000DEBFCDBF11E0A0E0B1E0EAE8FFE702C063
:1078800005900D92A230B107D9F712E0A2E0B1E065
:1078900001C01D92AD30B107E1F70E942D3D0C945F
:1078A000C33F0C94003C982F95959595959595958B
:1078B000905D8F708A307CF0282F295A8091C0000B
:1078C00085FFFCCF9093C6008091C00085FFFCCF60
:1078D0002093C6000895282F205DF0CF982F809127
:1078E000C00085FFFCCF9093C6000895EF92FF92F1
:1078F0000F931F93EE24FF2487018091C00087FD22
:1079000017C00894E11CF11C011D111D81E2E8164D
:1079100081EAF80687E0080780E0180770F3E09135
:107920000401F091050109958091C00087FFE9CF1E
:107930008091C6001F910F91FF90EF9008950E94D3
:10794000763C982F8091C00085FFFCCF9093C600B5
:1079500091362CF490330CF09053892F089597555D
:10796000892F08951F930E949F3C182F0E949F3CCF
:107970001295107F810F1F9108951F93182F882350
:1079800021F00E94763C1150E1F71F9108951F935A
:10799000182F0E94763C803249F0809103018F5F5E
:1079A000809303018530C1F01F9108958091C0003C
:1079B00085FFFCCF84E18093C6008091C00085FFE5
:1079C000FCCF1093C6008091C00085FFFCCF80E102
:1079D0008093C6001F910895E0910401F091050184
:1079E00009951F9108950E94763C803241F0809164
:1079F00003018F5F80930301853081F008958091AA
:107A0000C00085FFFCCF84E18093C6008091C00058
:107A100085FFFCCF80E18093C6000895E0910401CA
:107A2000F09105010995089548EC50E08823A1F0F4
:107A30002D9A28EE33E0FA013197F1F721503040CA
:107A4000D1F72D9828EE33E0FA013197F1F7215064
:107A50003040D1F7815061F708953F924F925F9285
:107A60006F927F928F929F92AF92BF92CF92DF924E
:107A7000EF92FF920F931F93CF93DF93000082E06A
:107A80008093C00080E18093C4001092C50088E11B
:107A90008093C10086E08093C2005098589A259A3E
:107AA00081E00E94143D24E1F22E9EE1E92E85E959
:107AB000D82E0FE0C02E10E1B12EAA24A394B1E479
:107AC0009B2EA6E58A2EF2E57F2EE0E26E2E79E46B
:107AD000572E63E5462E50E5352E0E94763C8033C6
:107AE000B1F18133B9F1803409F46FC0813409F404
:107AF00076C0823409F485C0853409F488C08035A5
:107B000031F1823521F1813511F1853509F485C0D6
:107B1000863509F48DC0843609F496C0843709F49B
:107B200003C1853709F472C1863709F466C08091B4
:107B300003018F5F80930301853079F6E0910401A2
:107B4000F091050109950E94763C803351F60E9420
:107B5000F33CC3CF0E94763C803249F78091C0004D
:107B600085FFFCCFF092C6008091C00085FFFCCF5E
:107B70009092C6008091C00085FFFCCF8092C60025
:107B80008091C00085FFFCCF7092C6008091C0003C
:107B900085FFFCCF6092C6008091C00085FFFCCFBE
:107BA0005092C6008091C00085FFFCCF4092C60075
:107BB0008091C00085FFFCCF3092C6008091C0004C
:107BC00085FFFCCFB092C60088CF0E94763C8638F5
:107BD00008F4BDCF0E94763C0E94F33C7ECF0E9409
:107BE000763C803809F49CC0813809F40BC1823896
:107BF00009F430C1883909F48FC080E00E94C73C85
:107C00006CCF84E10E94BD3C0E94F33C66CF85E0CE
:107C10000E94BD3C0E94F33C60CF0E94763C809362
:107C200006010E94763C809307010E94F33C55CFE9
:107C30000E94763C803309F411C183E00E94BD3C70
:107C400080E00E94C73C49CF0E94763C80930902A5
:107C50000E94763C8093080280910C028E7F809374
:107C60000C020E94763C853409F409C18091080217
:107C700090910902892B89F000E010E00E94763C87
:107C8000F801E85FFE4F80830F5F1F4F809108026D
:107C9000909109020817190788F30E94763C8032F8
:107CA00009F045CF80910C0280FFF5C0609106017C
:107CB00070910701660F771F7093070160930601AB
:107CC000A0910802B09109021097C9F0E8E0F1E034
:107CD0009B01AD014E0F5F1FF999FECF32BD21BD53
:107CE000819180BDFA9AF99A2F5F3F4FE417F5070B
:107CF00099F76A0F7B1F70930701609306018091CB
:107D0000C00085FFFCCFF092C6008091C00085FFC7
:107D1000FCCFB092C600E1CE83E00E94C73CDDCE2E
:107D200082E00E94C73CD9CE0E94763C8093090233
:107D30000E94763C80930802809106019091070191
:107D4000880F991F90930701809306010E94763C4B
:107D5000853409F49AC080910C028E7F80930C02C6
:107D60000E94763C803209F0B8CE8091C00085FF39
:107D7000FCCFF092C600A0910802B09109021097C2
:107D8000C1F180910C02082F0170182F1695117007
:107D9000E0910601F0910701AF014F5F5F4FBA011B
:107DA00020E030E00023B1F4112339F49491809164
:107DB000C00085FFFCCF9093C6002F5F3F4FCB01E3
:107DC0000196FA012A173B0780F4BC014F5F5F4F11
:107DD000002351F3F999FECFF2BDE1BDF89A90B5B9
:107DE0008091C00085FFFCCFE6CF709307016093C0
:107DF00006018091C00085FDE5CE8091C00085FF21
:107E0000F8CFE0CE81E00E94C73C67CE0E94763C6E
:107E1000803209F08CCE8091C00085FFFCCFF092BB
:107E2000C6008091C00085FFFCCFE092C600809123
:107E3000C00085FFFCCFD092C6008091C00085FFB6
:107E4000FCCFC092C6008091C00085FFFCCFB092ED
:107E5000C60043CE80E10E94C73C3FCE0E94763CE4
:107E60000E94763C182F0E94763C112309F483C0AF
:107E7000113009F484C08FE00E94C73C2ECE80915F
:107E80000C02816080930C02F1CE80910C02816023
:107E900080930C0265CF809107018823880F880B9F
:107EA0008A2180930B028091060190910701880F2F
:107EB000991F90930701809306018091080280FF2B
:107EC00009C08091080290910902019690930902DD
:107ED00080930802F894F999FECF1127E0910601EA
:107EE000F0910701C8E0D1E0809108029091090269
:107EF000103091F40091570001700130D9F303E084
:107F000000935700E8950091570001700130D9F3B4
:107F100001E100935700E8950990199000915700EE
:107F200001700130D9F301E000935700E8951395F3
:107F3000103498F011270091570001700130D9F3E7
:107F400005E000935700E89500915700017001305B
:107F5000D9F301E100935700E8953296029709F0B2
:107F6000C7CF103011F00296E5CF11248091C000E8
:107F700085FFC5CEC8CE8EE10E94C73CAECD85E957
:0A7F80000E94C73CAACDF894FFCF81
:027F8A00800075
:040000030000780081
:00000001FF